S01600006275696C642F7769646562616E642E7372656391
S315080000000004002091010008150B00089301000860
S315080000109301000893010008930100089301000862
S315080000209301000893010008930100089301000852
S315080000309301000893010008930100089301000842
S315080000409301000893010008930100089301000832
S315080000509301000893010008930100089301000822
S315080000609301000893010008930100089301000812
S31508000070930100089301000893010008010A00088B
S3150800008093010008930100089301000893010008F2
S3150800009093010008930100089301000893010008E2
S315080000A093010008930100089301000893010008D2
S315080000B09301000893010008D90800089301000875
S315080000C072B6244880F30888234880F309880220FA
S315080000D080F31488BFF36F8F00F0D0FB00F022FD89
S315080000E01E481F491B4A914202DA08600431FAE7A2
S315080000F01C49194A914202DA08600431FAE71A499A
S315080001001A4A1B4B9A4204DA086810600431043212
S31508000110F8E700201749184A914202DA08600431C4
S31508000120FAE700F0AFFB00F0AAFB144C144DAC4202
S3150800013003DA216888470434F9E700F08BFD114C8F
S31508000140114DAC4203DA216888470434F9E70F49B0
S3150800015008470000000400200006002055555555A4
S315080001600002002000040020B8160008000600203F
S315080001700006002000060020800A0020C0000008B3
S31508000180C0000008C0000008C00000088108000878
S3150800019096E700F000F8FEE7F0B544464D465646A9
S315080001A05F46F0B46B464B6143699D46F0BCA0467A
S315080001B0A946B246BB46F0BD62B6281CA047002039
S315080001C000F086FCFEE700F065FC024A024B13606D
S315080001D0FEE7C04604ED00E00000008002B4714668
S315080001E049084900095649008E4402BC7047C04672
S315080001F002B4714649084900095C49008E4402BCAC
S315080002007047C046036810B50B4303604368002B6C
S3150800021000D0984710BDFEE730B572B6074C656842
S315080002202B1A484218402368821A9A4204D39542E8
S3150800023002D3626062B630BD0020FBE79807002053
S3150800024072B6EFF30983203B83F3098880225204B0
S31508000250DA61054A1168526988689168034A8842D2
S3150800026000D9034A9A6170475C060020CA01000853
S31508000270C701000801230249CA681A42FCD170471F
S3150800028000200240044B1A69120603D5034A5A6035
S31508000290034A5A607047C04600200240230167455A
S315080002A0AB89EFCD012070B50022FF25074C084E1B
S315080002B008494042B35C013243402B409B001B591E
S315080002C0000A58408A42F5D1C04370BD1C12000886
S315080002D000180008FC630000F0B501240022250080
S315080002E0284220D02F009740144B5968B94357002D
S315080002F0BC4603276646B740596099680726B9433E
S315080003009960D968B943D9601968B9432143196016
S3150800031011000F27314089008F40F943B24207D8B0
S315080003201E6A31401962400806D0A4000132D7E798
S315080003305E6A31405962F6E7F0BDC04600040048DF
S315080003400022431CDA778268054B1B68996891423C
S31508000350FBD25A6803604260106058607047C04616
S315080003605C060020030010B572B6421CD07F052833
S3150800037007D8FFF73DFF0C060603120E00215A6A3E
S3150800038011600122524218005A62FFF7D9FF62B67D
S3150800039010BD596A8A6801328A6059681A680A6003
S315080003A05160EEE710B504002068844200D110BD04
S315080003B0036823605C6000234362FFF7C1FFF3E72D
S315080003C010B50124064B59694A1CD077186802688B
S315080003D053601A60421CD4775861FFF7DDFE10BDE2
S315080003E05C060020F0B54A4C89B063690190009319
S315080003F04B1C00D188E0009B03AD2B61454BEB609D
S315080004008023DB055A6A042900D204212600A36941
S315080004101836B34227D103936B6080236262DB05EB
S315080004208A18A561E561A9605A6300221A61023239
S31508000430DA600198FFF7C4FF069B03AA002B0ED0CB
S315080004402000A169039B1830914240D004990B60A3
S315080004505960834203D09968059A8A189A60009B66
S31508000460586A09B0F0BD666A9868921B8F18BA4236
S3150800047022D91F0004E06046121A0020B8603F68BF
S31508000480B86884468242F6D8B618666226001836D8
S31508000490B74201D0821ABA609A68914214D85A684B
S315080004A003936A6015605D60A9609A68521A9A603B
S315080004B001235B422362BCE739008742ECD28022E3
S315080004C0F619D2055663E7E71B68891AE4E700229E
S315080004D08025A361ED055860CA60834201D1EA60B0
S315080004E0BDE79A68896852189A60616A6B6A581AF1
S315080004F08242B4D9CB1A9B18032B00D8021D80233D
S315080005008918DB055963AAE70198FFF759FFA6E79B
S315080005105C0600206503000810B5010072B60820C5
S31508000520FFF760FF62B610BD70B5040072B603250A
S315080005303D4A1378052B10D0536DD968294209D046
S315080005400320DA68024219D11A6902424ED162B60C
S31508000550002012E019692942F2D1344B04205E6961
S31508000560130010333360536973601E605661FFF7DA
S3150800057027FF706A0028DBD062B670BDD822DA2160
S31508000580DC25520049006D009A5859585D59256175
S31508000590DE256D005D5965612025DD60DD68054253
S315080005A003D102205D692843586101259308500844
S315080005B02B40284000015B01034320792F35A843CF
S315080005C0034323719B0627D5D308A268520F520707
S315080005D01A43A2600F22080023791040934303436D
S315080005E023710B0A090C23706180B0E7E022E2212F
S315080005F0E425520049006D009A5859585D592561FD
S31508000600E6256D005D59656120251D611D69054258
S31508000610CBD110205D69C6E7530D2289D20AD202D2
S315080006201A432281D6E7C046000600205C06002051
S3150800063030B585B0019B234A5B0F5B0713430193D3
S3150800064072B6E0256D05204A1378052B19D0536D2F
S315080006509968294215D01D4A1D491268120C8A420A
S3150800066021D19A689201920F183212019B18002222
S3150800067001995A60C9009A60DA6005320A431A601D
S315080006800EE0144B04205C69130008332360D3681A
S3150800069063601C60D460FFF793FE636A002BD2D0B8
S315080006A062B605B030BD9A68520107D49A6812013D
S315080006B006D49A68D200F3D50222D5E70022D3E7FA
S315080006C00122D1E773757200000600200058014028
S315080006D0011000005C060020F0B589B072B602234E
S315080006E0802201255D4C920423705D4B63605D4B4F
S315080006F0D9690A43DA61DB69636D1D60636D5A68FF
S315080007002A423ED0626851681268D9611A60564A10
S315080007105A610423237062B620240F2502A8FFF726
S3150800072003FF0028FAD102AB1B792342F6D02B42ED
S31508000730F4D1EF22049B1205DB00DB089342EDD1CE
S315080007404A4B01930123019A1370FFF771FF02A820
S31508000750FFF7EAFE0028FAD1202202AB1B791342E2
S31508000760F5D0049BDB00D808DB0DEF2BEFD184B264
S31508000770E03B001418400328E9D8FFF72FFDE607E9
S31508000780346329000820FFF72DFEB7E7384B9C4253
S31508000790DDD1384B02261C68F8231B06E418A40A88
S315080007A02300FF2719330093334DFFF76BFDFFF73F
S315080007B061FD2B6933432B6123003B409B026B6130
S315080007C040232A6913432B61C046FFF753FD2B6963
S315080007D00134B3432B6180232A6913432B61009BA1
S315080007E09C42E1D1B1E701263442B0D102AB1B7974
S315080007F01B071B0F3342AAD1D022D2019442A6D29C
S3150800080000931C4B02AF1B68E418FFF73BFDFFF78C
S3150800081031FD009B184D0237012B04D880232A6925
S3150800082013432B6191E72B69FA8933432B612280A5
S31508000830FFF720FD2B690234B3432B61009B023B73
S315080008400093E6E7FFF7F4FEFA208000FFF764FE60
S315080008500023019A137009B0F0BDC04600060020B7
S3150800086014120008001002405B8701005806002099
S315080008705A5A00001C1600080020024070477047AC
S31508000880FEE7000070B5124C626820681100A36884
S315080008908B4219D8D11E00208B4203D303339B1AEF
S315080008A09B0898001018E368C11E0022994203D8D5
S315080008B003331A1A92089200002100F0FFFB054B39
S315080008C010349C42E0D170BD20C820C1E0E7C04684
S315080008D038160008B816000870B5484C0121626D34
S315080008E0764693681D00936080220D4052020B42A3
S315080008F003D00B310B4200D01500D90507D5C0210E
S3150800090009010B4200D174E0802189020D4313428C
S3150800091007D0C0221203134200D16CE08023DB0209
S315080009201D4372B620000830FFF73CFD2000290061
S315080009302430FFF767FC62B6636DDD68AA070ED040
S3150800094002215A698A435A6172B620001030FFF7AD
S3150800095029FD200001211830FFF754FC62B610214A
S315080009600D4207D0636DD96072B620003030FFF7AC
S3150800097049FC62B6636D1D69AA070DD010215A6934
S315080009808A435A6172B66018FFF70CFD20000221EF
S315080009901830FFF737FC62B610210D4207D0636D99
S315080009A0196172B620003030FFF72CFC62B6636D11
S315080009B05D685D602A070CD50422022122701A6838
S315080009C08A431A6072B6200000214830FFF71AFCE5
S315080009D062B66D0708D5636D996972B62000090479
S315080009E03030FFF70FFC62B60F3601D0FFF728FC50
S315080009F070BD02218AE7042392E7C046000600205C
S31508000A00F8B58025ED052A69EB6877461340DAB212
S31508000A10D2432A619B0736D572B61D4CA369696A0B
S31508000A20606A9A680E1A96421AD39968626A761AA2
S31508000A30521818218C46A4446146002062621A683E
S31508000A405160D968A261D860624500D1E86062B693
S31508000A501869884772B6A3699A689642E5D2DEE7AE
S31508000A602200A569183295420CD0AA686162521A0A
S31508000A701218AA609B68042B00D2042380225B18F4
S31508000A80D205536362B60F3701D0FFF7D9FBF8BD1D
S31508000A905C06002010B501240C4B186859690268D9
S31508000AA053601A60421CD4770A190024D4778A68DE
S31508000AB058611B689C689442FBD85A680B604A6068
S31508000AC011605960FFF768FB10BDC0465C06002040
S31508000AD010B572B60E4B5C6960622300A06A2833B3
S31508000AE098420FD1E31CDB7F002B07D1A31CDB7FC9
S31508000AF09B0703D12269E368D3601A610F20FFF7C9
S31508000B005FFC10BD0368A362FFF71AFCE5E7C04661
S31508000B105C060020EFF30983203383F3098862B665
S31508000B20704700009C22404BD203996A30B51143A6
S31508000B309962996A3D483E4C01409962996A596999
S31508000B4001200A435A6190215A690022C905404288
S31508000B504A608860CC608424A825A4054A610C6292
S31508000B60344CED014C62344C0C603449344C4A60C8
S31508000B708860CC604A610A624A620D603149324D2A
S31508000B804A608860CC604D610A624A620A602F49F1
S31508000B904A608860CC604D610A624A620A601968D8
S31508000BA001320A431A60022219681142FCD0032155
S31508000BB05A688A435A600C22596808001040114244
S31508000BC0FAD1F9211A680A401A6001225860596B4D
S31508000BD00A435A630222596B1142FCD0842100222F
S31508000BE04903DA6259601A638022196852040A4373
S31508000BF01A608022920419681142FCD01121144A05
S31508000C001160103910680842FCD0022259680A435C
S31508000C100C215A605A680A40082AFBD19969073A92
S31508000C200A439A619B6930BD00100240FFFFB1FF7D
S31508000C3055555525114004003FA0A8AA00040048B0
S31508000C405555555500080048FFFF00000014004898
S31508000C5000200240F7B5EF4FEF4BBA6A13439C22C8
S31508000C60BB62BB6AD2031340BB62BB6A3B69012302
S31508000C7000225B423B613B693A613B69F968E74B95
S31508000C800B438021FB60FB68C9030B40FB60FB68D4
S31508000C908023F9695B050B43FB61FB698023E04907
S31508000CA05B00086803430B60C023396A9B0019423E
S31508000CB003D080235B023B623A62C122D94B920081
S31508000CC09858D949C0240840C021090201439950BF
S31508000CD0C02149008C4660466139FF3919501960B0
S31508000CE09858D24924040840204398506446402026
S31508000CF01851C0241860985824060002000A204398
S31508000D009850604680221A50C9481A600400083470
S31508000D108460C4600400103404614461C72400255B
S31508000D200126C44AA40085610670456245600563CC
S31508000D30C561C56305628562C562456385630564E9
S31508000D4045648564C5640565426518590840C0212F
S31508000D5009040143195180216046C90519508020AC
S31508000D601960FC6980042043F861F86980208000D6
S31508000D701458240C2404344314501458AE48240C34
S31508000D80240404438020800014509024A4001551A4
S31508000D9004341551403C155110341551083C165170
S31508000DA0103416511458B4431450FA69A348C3248E
S31508000DB00240FA61FA69FA69A1483243FA61FA69A6
S31508000DC08268A4003243826001209E4A40428A62B9
S31508000DD0C8628D614D63CD604D604E610E608021A5
S31508000DE01A5909061202120A114380221951644639
S31508000DF012021A511A60944B944A8C491A60944A02
S31508000E005A60944B944A1C001A60944A5D609D602F
S31508000E100C34DC601C615D61136A914C0B401362F3
S31508000E20230080221833A361E36120622460646092
S31508000E30A5606562656622638A4B8B482364230036
S31508000E4050332365230054336365A365874B2266B5
S31508000E506364230048331E8023004A331E70844B84
S31508000E6022001900AC310B601900A43108608149D1
S31508000E708148D967191DCD6719008C31086019009A
S31508000E8098310E601900C8310E601900C4310D6022
S31508000E90190001900220B03108801900B2310E7095
S31508000EA019007648A831086019009C310C601900B1
S31508000EB02832A031E2606261E565A4630A601A001F
S31508000EC0B83212601A006E48BC32C03360631260D2
S31508000ED01A602061FFF734FA62B672B6A722A52116
S31508000EE0684B92009B50684A89005A50674A2839CD
S31508000EF05A509C22019992009D500C329950A22179
S31508000F00FC3AFF3A89005A5030315A50AD22022035
S31508000F10A62192009D50143A98525D4A89009E5423
S31508000F205C4A5D485A50A32292009C5022690839AF
S31508000F305A50D060594A18315A50594A04315A50B1
S31508000F4004315A50A922616992008E6820619D5029
S31508000F50802E37D9FFF7F4F962B6402614252020EB
S31508000F60504CFFF7B9F94020FFF7B6F963697340AB
S31508000F7063612022C8206369400053406361636946
S31508000F80013D73406361FFF7C7FA002DF1D12026B2
S31508000F90454B1B78002B09D1444D454BEB58019323
S31508000FA0FFF780F9019B00BA83421FD04022FA203E
S31508000FB06369C00073406361636953406361FFF707
S31508000FC0ABFAE5E74A1CD577220012689568AE4267
S31508000FD0FBD355680A604D6029605160A822012537
S31508000FE092009D546061FFF7D7F8B5E772B6134AC9
S31508000FF0FB69290013408022FB6152002D48FB69DA
S315080010006C6800F0AFF803232B4A11680B43136092
S31508001010A047FEE700100240FFFFB1FFFFFFBFFF3A
S315080010200070004000E100E0FF00FFFFFFFF00FF47
S315080010300006002000640040010E0000FFFFFFFDCF
S3150800104000580140BF12000098070020800A0020BF
S3150800105000410020A00700201902000800ED00E06A
S315080010605C06002020160008340700200004002033
S31508001070C806002017020008B9010008081200086F
S3150800108058070020C00700201C0A0020D9060008BF
S31508001090A20200000D120008400A0020680A00207B
S315080010A06C0A0020000400485806002000180008B2
S315080010B0FC6300000000002000000140F0B50500B8
S315080010C0830749D0541E002A45D003000326CAB216
S315080010D002E00135013C3ED301332A703342F8D190
S315080010E0032C30D9FF250D402A022A43150415433F
S315080010F00F2C34D92700103F3F093E01B4461E0085
S315080011001A0010366644156055609560D560103231
S31508001110B242F8D101373F01DB190F270C222740CD
S3150800112022403C00002A0ED03E1FB608B400A44652
S315080011301A001C1D644420C2A242FCD103240136B5
S31508001140B6009B193C40002C05D0C9B21C19197071
S3150800115001339C42FBD1F0BD03001400C0E7270011
S31508001160E2E7C046F0B5C64600B50F2A41D90324C2
S31508001170030026000B431E401C423FD11500103DBC
S315080011802D09A8462D01AC4603000C0084442768A7
S315080011901D001F6067685F60A7689F60E768103476
S315080011A0DF6010336545F2D145460F230C2401351F
S315080011B02D01491913404519144222D08C59AC51B6
S315080011C004369C1B032CF9D8043B9B0801339B006F
S315080011D0ED18C91803231A40561E002A06D0002304
S315080011E0CC5C1A00EC5401339642F9D180BCB8465F
S315080011F0F0BD0500561E002AF1D1F7E70500561E78
S31508001200EDE71A00F6E7C04669646C65006E6F6E16
S31508001210616D65006400000005001C000000000008
S31508001220963007772C610EEEBA51099919C46D07E5
S315080012308FF46A7035A563E9A395649E3288DB0E40
S31508001240A4B8DC791EE9D5E088D9D2972B4CB60923
S31508001250BD7CB17E072DB8E7911DBF906410B71D00
S31508001260F220B06A4871B9F3DE41BE847DD4DA1A39
S31508001270EBE4DD6D51B5D4F4C785D38356986C136A
S31508001280C0A86B647AF962FDECC9658A4F5C0114E3
S31508001290D96C0663633D0FFAF50D088DC8206E3BC1
S315080012A05E10694CE44160D5727167A2D1E4033CD3
S315080012B047D4044BFD850DD26BB50AA5FAA8B535FA
S315080012C06C98B242D6C9BBDB40F9BCACE36CD832E9
S315080012D0755CDF45CF0DD6DC593DD1ABAC30D92690
S315080012E03A00DE518051D7C81661D0BFB5F4B42193
S315080012F023C4B3569995BACF0FA5BDB89EB8022890
S315080013000888055FB2D90CC624E90BB1877C6F2F14
S31508001310114C6858AB1D61C13D2D66B69041DC760F
S315080013200671DB01BC20D2982A10D5EF8985B171E8
S315080013301FB5B606A5E4BF9F33D4B8E8A2C9077897
S3150800134034F9000F8EA8099618980EE1BB0D6A7F2E
S315080013502D3D6D08976C6491015C63E6F4516B6BE7
S3150800136062616C1CD83065854E0062F2ED95066C9C
S315080013707BA5011BC1F4088257C40FF5C6D9B06511
S3150800138050E9B712EAB8BE8B7C88B9FCDF1DDD626E
S31508001390492DDA15F37CD38C654CD4FB5861B24DD4
S315080013A0CE51B53A7400BCA3E230BBD441A5DF4A9E
S315080013B0D795D83D6DC4D1A4FBF4D6D36AE9694361
S315080013C0FCD96E34468867ADD0B860DA732D04440C
S315080013D0E51D03335F4C0AAAC97C0DDD3C71055037
S315080013E0AA41022710100BBE86200CC925B56857DE
S315080013F0B3856F2009D466B99FE461CE0EF9DE5E27
S3150800140098C9D9292298D0B0B4A8D7C7173DB359D7
S31508001410810DB42E3B5CBDB7AD6CBAC02083B8ED68
S31508001420B6B3BF9A0CE2B6039AD2B1743947D5EA75
S31508001430AF77D29D1526DB048316DC73120B63E3A4
S31508001440843B64943E6A6D0DA85A6A7A0BCF0EE403
S315080014509DFF099327AE000AB19E077D44930FF0BE
S31508001460D2A3088768F2011EFEC206695D5762F7B5
S31508001470CB67658071366C19E7066B6E761BD4FEF2
S31508001480E02BD3895A7ADA10CC4ADD676FDFB9F9CF
S31508001490F9EFBE8E43BEB717D58EB060E8A3D6D691
S315080014A07E93D1A1C4C2D83852F2DF4FF167BBD1BF
S315080014B06757BCA6DD06B53F4B36B248DA2B0DD8C2
S315080014C04C1B0AAFF64A0336607A0441C3EF60DF65
S315080014D055DF67A8EF8E6E3179BE69468CB361CB4E
S315080014E01A8366BCA0D26F2536E2685295770CCC73
S315080014F003470BBBB91602222F260555BE3BBAC5B4
S31508001500280BBDB2925AB42B046AB35CA7FFD7C2A4
S3150800151031CFD0B58B9ED92C1DAEDE5BB0C2649B95
S3150800152026F263EC9CA36A750A936D02A906099CC8
S315080015303F360EEB8567077213570005824ABF953B
S31508001540147AB8E2AE2BB17B381BB60C9B8ED292BE
S315080015500DBED5E5B7EFDC7C21DFDB0BD4D2D38615
S3150800156042E2D4F1F8B3DD686E83DA1FCD16BE8188
S315080015705B26B9F6E177B06F7747B718E65A088859
S31508001580706A0FFFCA3B06665C0B0111FF9E658FEA
S3150800159069AE62F8D3FF6B6145CF6C1678E20AA094
S315080015A0EED20DD75483044EC2B30339612667A71A
S315080015B0F71660D04D476949DB776E3E4A6AD1AE69
S315080015C0DC5AD6D9660BDF40F03BD83753AEBCA9F8
S315080015D0C59EBBDE7FCFB247E9FFB5301CF2BDBD65
S315080015E08AC2BACA3093B353A6A3B4240536D0BA6E
S315080015F09306D7CD2957DE54BF67D9232E7A66B30B
S31508001600B84A61C4021B685D942B6F2A37BE0BB4B7
S31508001610A18E0CC31BDF055A8DEF022D001800089A
S315080016206D61696E0016803004043C08140C1018AD
S315080016301C20212200000000B8160008800A00209D
S31508001640800A0020800A0020B81600080000000062
S315080016500000000000000000B816000800000000A6
S315080016600000000000000000B81600080000000096
S315080016700000000000000000B81600080000000086
S315080016800000000000000000B81600080000000076
S315080016900000000000000000B81600080000000066
S315080016A00000000000000000B81600080000000056
S315080016B00000000000000000FFFFFFFFFFFFFFFF24
S315080016C0FFFFFFFFFFFFFFFFFFFFFFFFFFFFFFFF1C
S315080016D0FFFFFFFFFFFFFFFFFFFFFFFFFFFFFFFF0C
S315080016E0FFFFFFFFFFFFFFFFFFFFFFFFFFFFFFFFFC
S315080016F0FFFFFFFFFFFFFFFFFFFFFFFFFFFFFFFFEC
S31508001700FFFFFFFFFFFFFFFFFFFFFFFFFFFFFFFFDB
S31508001710FFFFFFFFFFFFFFFFFFFFFFFFFFFFFFFFCB
S31508001720FFFFFFFFFFFFFFFFFFFFFFFFFFFFFFFFBB
S31508001730FFFFFFFFFFFFFFFFFFFFFFFFFFFFFFFFAB
S31508001740FFFFFFFFFFFFFFFFFFFFFFFFFFFFFFFF9B
S31508001750FFFFFFFFFFFFFFFFFFFFFFFFFFFFFFFF8B
S31508001760FFFFFFFFFFFFFFFFFFFFFFFFFFFFFFFF7B
S31508001770FFFFFFFFFFFFFFFFFFFFFFFFFFFFFFFF6B
S31508001780FFFFFFFFFFFFFFFFFFFFFFFFFFFFFFFF5B
S31508001790FFFFFFFFFFFFFFFFFFFFFFFFFFFFFFFF4B
S315080017A0FFFFFFFFFFFFFFFFFFFFFFFFFFFFFFFF3B
S315080017B0FFFFFFFFFFFFFFFFFFFFFFFFFFFFFFFF2B
S315080017C0FFFFFFFFFFFFFFFFFFFFFFFFFFFFFFFF1B
S315080017D0FFFFFFFFFFFFFFFFFFFFFFFFFFFFFFFF0B
S315080017E0FFFFFFFFFFFFFFFFFFFFFFFFFFFFFFFFFB
S315080017F0FFFFFFFFFFFFFFFFFFFFFFFFFFFFFFFFEB
S3150800180000060020A1190008A1450008ED190008E6
S31508001810111A0008EC190008FF190008A319000896
S31508001820A3190008A3190008A3190008A31900089A
S31508001830A3190008A3190008A3190008A31900088A
S31508001840A3190008A3190008A3190008A31900087A
S31508001850A3190008A3190008A3190008A31900086A
S31508001860A319000831430008C13F00084140000899
S31508001870B1400008B144000801450008A14300082A
S3150800188051450008A3190008A3190008A319000860
S31508001890A3190008A3190008A3190008A31900082A
S315080018A0A3190008A3190008A3190008413E000857
S315080018B0213F0008713F000891410008A31900085C
S309080018C0414F00087E
S315080018D072B6244880F30888234880F309880220D2
S315080018E080F31488BFF36F8F02F05AFA02F060FE95
S315080018F01E481F491B4A914202DA08600431FAE77A
S315080019001C49194A914202DA08600431FAE71A4971
S315080019101A4A1B4B9A4204DA0868106004310432EA
S31508001920F8E700201749184A914202DA086004319C
S31508001930FAE702F04DFA02F03BFA144C144DAC42A9
S3150800194003DA216888470434F9E702F0D9FE114C16
S31508001950114DAC4203DA216888470434F9E70F4988
S315080019600847000000060020000A00205555555576
S315080019700002002000060020EC640008000A00208F
S31508001980080A0020080A002090190020C01800083C
S31508001990C4180008C4180008C4180008C13D000887
S315080019A096E700F000F8FEE7F0B544464D46564681
S315080019B05F46F0B46B46CB60C3689D46F0BCA04654
S315080019C0A946B246BB46F0BD62B6281CA047002011
S315080019D002F0D6F9FEE702F09BF9024A024B1360C1
S315080019E0FEE7C04604ED00E0000000801EF0040F8C
S315080019F00CBFEFF30880EFF3098003F079BA1EF005
S31508001A00040F0CBFEFF30880EFF3098003F088BAE0
S31508001A101EF0040F0CBFEFF30880EFF3098003F004
S31508001A2087BA00BF002243088B4274D303098B424E
S31508001A305FD3030A8B4244D3030B8B4228D3030C90
S31508001A408B420DD3FF22090212BA030C8B4202D332
S31508001A501212090265D0030B8B4219D300E0090A5A
S31508001A60C30B8B4201D3CB03C01A5241830B8B4263
S31508001A7001D38B03C01A5241430B8B4201D34B034C
S31508001A80C01A5241030B8B4201D30B03C01A5241B1
S31508001A90C30A8B4201D3CB02C01A5241830A8B4236
S31508001AA001D38B02C01A5241430A8B4201D34B021F
S31508001AB0C01A5241030A8B4201D30B02C01A524183
S31508001AC0CDD2C3098B4201D3CB01C01A5241830937
S31508001AD08B4201D38B01C01A524143098B4201D371
S31508001AE04B01C01A524103098B4201D30B01C01A9C
S31508001AF05241C3088B4201D3CB00C01A5241830816
S31508001B008B4201D38B00C01A524143088B4201D342
S31508001B104B00C01A5241411A00D2014652411046A2
S31508001B207047FFE701B5002000F006F802BDC04681
S31508001B300029F7D076E770477047C0468446080004
S31508001B406146FFE71FB503F05BFE002801D40021BC
S31508001B50C8421FBD10B503F0E7FD4042013010BD75
S31508001B6010B503F04DFE002801DB002010BD012052
S31508001B7010BDC04610B503F043FE002801DD002065
S31508001B8010BD012010BDC04610B503F0F3FD0028B6
S31508001B9001DC002010BD012010BDC04610B503F0C1
S31508001BA0E9FD002801DA002010BD012010BDC0465D
S31508001BB01C2101231B04984201D3000C10391B0A6F
S31508001BC0984201D3000A08391B09984201D3000933
S31508001BD0043902A2105C40187047C046040302028A
S31508001BE001010101000000000000000000000000E3
S31508001BF0C36810B5002B32D01F4B1A6982420DD02C
S31508001C004168026810330A6051600021C1609A4237
S31508001C1003D0936881685B18936010BD1800002490
S31508001C201168103019614860D46081421CD08868F8
S31508001C30926882188A608021C905D869496A0C1A8F
S31508001C40A242EAD9411A8918032900D8221D8024FC
S31508001C50E405E16889070BD580186063DDE772B68D
S31508001C60054B064A5A64FEE78023DB05DC60D4E7A9
S31508001C7072B6034A5A64FEE7F81700206062000845
S31508001C80E4610008000000000000000000000000F9
S31508001C90FEE7C0460000000000000000000000004B
S31508001CA072B6037D032B21D0042B1AD0002B11D03A
S31508001CB00122524282610F2B0ED0002381680375E0
S31508001CC00C4B1B689A688A42FBD25A6803604260CA
S31508001CD01060586062B6704772B6064B064A5A6478
S31508001CE0FEE7416802680A605160E1E700218269FF
S31508001CF01160DDE7F8170020706200080000000098
S31508001D000268002A11D0137D032B0FD1002303602C
S31508001D1013759068084B91611B6899688142FBD2DC
S31508001D205968136051600A605A60704772B6024B70
S31508001D30024A5A64FEE7C046F81700208462000883
S31508001D400F4A70B594460322FF25C0260240D200EA
S31508001D5095408901914083089B006344B6009C59CD
S31508001D601F22AC430C439C51012302409340C022DE
S31508001D7040098000604452008350036070BDC0462D
S31508001D8000E100E000000000000000000000000084
S31508001D90F0B5D6464F46464604000D00C0B50028A5
S31508001DA02FD072B603785A1E012A25D84A68416090
S31508001DB091468260012B00D175E000238669336065
S31508001DC07363B363F36333647362774B9A462B6822
S31508001DD06769190038009846FFF724FE8022431EDB
S31508001DE05202934203D24246504387420ED072B6FD
S31508001DF06E4B6F4A5A64FEE772B66C4B6D4A5A646C
S31508001E00FEE772B6694B6B4A5A64FEE7B3624B4605
S31508001E100F22013BF362EF68EB6A3A407360012ACE
S31508001E203DD00023022A3BD00F2268690240012ACE
S31508001E3055D0022A51D0EA6990460F2241460A40F7
S31508001E40012A46D0022A41D00F216A6A1140012987
S31508001E5038D0022933D0544548D033620123FF21B4
S31508001E60002273616B6B32618B43F3608023296BAD
S31508001E701B020B43736485233360833B23704B4BF0
S31508001E80E2601A689A4204D0D968926889689142D1
S31508001E9028D362B6E0BCBA46B146A846F0BD0022D1
S31508001EA001231343C0E7404B9A46984261D0424B00
S31508001EB098424AD0A669414BB361F36187E780210E
S31508001EC089010B43802149010B43C4E7FF32FF32E6
S31508001ED01343802252001343B6E71E3213431022DF
S31508001EE01343A8E772B6364A5A64FEE7F0210F4054
S31508001EF0102F03D0202F03D1183F3B4304273B4321
S31508001F00F0273840102803D0202803D16030034337
S31508001F1040200343F02041460140102904D02029DF
S31508001F2005D1802109010B438021C9000B43F0210B
S31508001F300A40102A05D0202A00D08EE780221202F5
S31508001F4013438022D201134387E702211D4B102039
S31508001F50DA690A43DA61DA691A690A431A611A6997
S31508001F608A431A6101311B69FFF7EAFE164B636162
S31508001F70A0E78022134B120199690D20114399613C
S31508001F809969D9680A43DA60DA6810490A40DA605A
S31508001F900321DB68FFF7D4FE03210E20FFF7D0FEEE
S31508001FA0094B636186E7C046B40A0020F81700208B
S31508001FB0D461000838630008D00A00206868000069
S31508001FC02C63000800100240006CDC02FFF7FFFFDC
S31508001FD070B50468457B23680E21EB4019404368B9
S31508001FE0827B1B6819420BD00B00AB400132636041
S31508001FF0044BD200D458002C02D09B185868A0472E
S3150800200070BDC046F0180020000000000000000067
S3150800201003699B78012B08D0022B1AD0002B0ED00F
S3150800202072B6174B174A5A64FEE7002923D1C169CD
S315080020300B6849680C3389005B181A600EE00029A2
S3150800204015D1C1690B684968083389005B181A609D
S3150800205004E0002903D0C3691B68DA617047C169C7
S315080020600B684968103389005B181A60F6E7C3697C
S315080020701B685A61F2E7C3691B689A61EEE7C046B6
S31508002080F817002030620008000000000000000079
S31508002090826970B51469D36805001C40FF23234084
S315080020A0DB431361A30704D543681B69002B00D0E3
S315080020B09847630705D56B689B69002B01D02800F4
S315080020C09847230705D56B681B6A002B01D02800A3
S315080020D09847E30605D56B689B6A002B01D0280054
S315080020E09847E40705D56B689B68002B01D0280044
S315080020F0984770BD000000000000000000000000C6
S31508002100F8B5CE464746040080B5081C111C03F0F6
S3150800211009FD2568071CA168281C03F0B5FB391CB6
S3150800212003F0B2FBA16903F045F86169061C381C87
S3150800213003F0F8FC291C03F0DDF980231B069C46F6
S3150800214025698046AC446761291C301CE146FFF7C7
S3150800215011FD002800D12E1C4846311C4D46FFF7BC
S315080021601DFD002800D1351C6168A561381C03F0E7
S315080021708BFB061CE168404603F086FB011C301CFD
S3150800218003F018F8291C03F015F8C0BCB946B04688
S31508002190F8BDC04600000000000000000000000076
S315080021A00069704700000000000000000000000001
S315080021B0C068704700000000000000000000000032
S315080021C010B50249406903F05FFB10BDFFC8CEBFDA
S315080021D070B5060072B680230025DB055A6A1A4BCD
S315080021E0186A596A141A001969411C6A5D6A8D428F
S315080021F01DD81AD01A68186259629A4204D0DC6847
S315080022009268A46894421AD362B6B269F369801ACE
S315080022109941002911DC0ED003F096FE0B49FFF711
S31508002220B3FC002809D1002070BD8442E2D972B6F9
S31508002230074A5A64FEE7831CEED90648F4E772B6E5
S31508002240054A5A64FEE7C046F8170020005043477F
S315080022508861000800005041D85F000800000000AF
S3150800226003680C4A5B6810B593420FD1C1680A48E7
S3150800227003F040F9FE21890503F054FC011C0748C8
S3150800228003F038F9064903F04DFC10BD9847011CC8
S31508002290EDE7C046B12100083333534000E0AB46B2
S315080022A000002041000000000000000000000000BF
S315080022B0F8B5CE464746036844495A6980B58A4206
S315080022C01ED15B68424A93425CD1C168414803F01B
S315080022D011F9FE21890503F025FC011C3E4803F08F
S315080022E009F93E4903F01EFC041C3D49201CFFF772
S315080022F04BFC00280CD00020C0BCB946B046F8BD3F
S315080023009047041C3649201CFFF73EFC0028F2D1F2
S31508002310344B9C4239D03449201CFFF72BFC00284B
S3150800232033D13249201CFFF739FC00282FD1304B16
S315080023300026994608234B4498462E4F03E0434609
S3150800234080CB2E009846391C201C751CFFF708FC0C
S3150800235000281ED10F2DF2D12449201C03F0E2FBE0
S31508002360254903F091FA0025244E041CFE20211C61
S31508002370800503F0D7FB311C03F086FA291C02F00E
S3150800238019FFB9E79847011CA0E71D48B4E71B48A1
S31508002390B2E74B46B6009B59201C9946194B49464D
S315080023A09846F65803F0BEFB4946041C381C03F051
S315080023B0B9FB011C201C03F09DF84346AD00E95803
S315080023C0041C03F061FA051CD0E7C0466122000828
S315080023D0B12100083333534000E0AB4600002041EA
S315080023E000409C450000C07F0000A04200A08C452C
S315080023F0206000080000C842530469B90000FA4387
S3150800240000C08044D0600008000000000000000002
S31508002410806A023843425841C0B270470000000043
S31508002420406A70470000000000000000000000003D
S31508002430806A7047000000000000000000000000ED
S3150800244070B5060072B680230025DB055A6A114B63
S31508002450186A596A141A001969411C6A5D6A8D421C
S3150800246010D80DD01A68186259629A4204D0DC68EE
S315080024709268A468944209D362B63060716070BDF0
S315080024808442EFD972B6044A5A64FEE772B6034A22
S315080024905A64FEE7F817002088610008D85F00082C
S315080024A0F8B502000E1C72B680230025DB055F6AAC
S315080024B01C4B186A596A3C1A001969411C6A5D6AFC
S315080024C08D4222D81FD01C68186259629C4204D0DB
S315080024D0DD68A468AD68A5421FD362B65368126862
S315080024E0801A9941002916DC13D003F02DFD0E49F8
S315080024F0041C301C03F0C8F9011C201CFFF744FB20
S31508002500431E9841F8BD8442DDD972B6074A5A641B
S31508002510FEE7831CE9D90120F4E772B6044A5A6437
S31508002520FEE7C046F817002000401C4688610008F0
S31508002530D85F00080000000000000000000000004E
S315080025401B4B42019818D3581A4A9B6810B59342F8
S3150800255026D11949406903F097F9041C1749201C2C
S31508002560FFF712FB002818D11549201CFFF7F8FAC7
S31508002570002818D10021201CFFF7F2FA002815D1EF
S315080025801049201C03F080F90F4902F013FE011CC4
S31508002590FE20800502F0AEFF01E08020C00510BDD8
S315080025A09847041CDAE7FC208005F8E70749E8E7BE
S315080025B028170020C1210008FFC8CEBF7B148E3F14
S315080025C0000060C08A76E5BEFCDE7E3F11E490BE60
S315080025D070B50D00FE2106008905101C141CFFF7B6
S315080025E0C9FA002801D1FE24A4050021201CFFF702
S315080025F0D5FA002800D10024AB1C9B00F3185C60B8
S3150800260033683089EAB2002B0BD0197C914208D97D
S3150800261072B61A78022A09D072B6144B144A5A644A
S31508002620FEE772B6114B124A5A64FEE70121A94029
S31508002630DA689E690A43DA6003F034FC211C03F069
S3150800264023F902F09FFD094B0C35AD001A6876197F
S3150800265070609A4204D0D96892688968914201D319
S3150800266062B670BD72B6034A5A64FEE7F8170020D0
S31508002670D06200082C63000800000000000000007B
S31508002680582310B50A1CC15C0148FFF7A1FF10BD0D
S31508002690D81700200000000000000000000000001D
S315080026A0F8B54E464546DE465746E0B50E689146AD
S315080026B07369B24A04000D00934200D07CE0736847
S315080026C0AF4A934200D018E1C968AE4802F012FF3B
S315080026D0FE21890503F026FA011CAB4802F00AFF21
S315080026E0AA4903F01FFA80463369280098474B46E3
S315080026F08346002B22D12B682800DB689847A4491B
S31508002700A66A051CFFF72CFA002800D003E1A149A8
S31508002710281CFFF739FA002853D120004830FFF764
S315080027208FFE0023FE218026A3628905281CF60554
S31508002730FFF734FA00281FD1002625E0964BA66A33
S315080027401D684B46012BE8D1236B9449181C9A4601
S3150800275003F0E8F98146012E00D1A7E0022E00D148
S315080027607CE0002E66D0A6620026FE21281C89057C
S31508002770FFF714FA0028DFD0291C301C02F0BAFE35
S31508002780011C03F081F8061C8549281CFFF706FA88
S31508002790002800D000262368824A1B69934245D147
S315080027A058238148E15C321CFFF712FFF0BCBB4698
S315080027B0B246A946A046F8BD080098472E68804646
S315080027C092E772B68023DB055B6A00219946774B50
S315080027D04F469C461A6A5B6AB81A8018594163467E
S315080027E01A6A5B6A8B4200D9A5E000D1A0E063466D
S315080027F0186259621B68634506D06246D2689B68B0
S3150800280092689A4200D28EE062B6226C636C801A95
S315080028109941002998DC00D1A4E003F095FB6449AE
S31508002820FFF7B2F9002800D08EE776E72000311CC2
S315080028309847BBE7A06B03F035FB011C2000483026
S31508002840FFF72EFE00285DD149465846FFF79CF94A
S31508002850002857D1A6628026F60586E755495046D0
S3150800286002F0A8FC011C5846FFF78EF9002867D12C
S315080028705049504603F056F9011C5846FFF770F9BF
S31508002880002866D102234246E16AA362201DFFF7AB
S3150800289037FC011C484803F045F94849061CFFF770
S315080028A069F9002800D060E7444E5EE7011C5846E7
S315080028B0FFF76AF90028E5D1E06B03F0F3FA011C8B
S315080028C020005030FFF7ECFD00284FD1A662266A9B
S315080028D03A49301CFFF744F9002805D0301C38491E
S315080028E002F068FC061C20623449301CFFF742F9E6
S315080028F0002800D039E7314E37E7080098472E6898
S31508002900011CE2E620002F4B50302362FFF798FDAA
S315080029100123A362DBE720004030FFF791FD042383
S315080029200026A36221E772B66246274B5364FEE788
S31508002930824200D85BE772B66246244B5364FEE7D0
S3150800294034220421224BA25C002699540323A36255
S315080029500BE7342205211E4BA25C0026995403235B
S31508002960A36202E7831C00D857E7EDE63422184B2A
S31508002970A15C313A00265A54A262F6E661220008A2
S31508002980B12100083333534000E0AB460000204134
S315080029900000084100001841E01500200000F04141
S315080029A00000B84181260008D8170020F817002033
S315080029B000409C450000C8420000F040000040412D
S315080029C00AD7A33C0000E040D85F000888610008E9
S315080029D0140B0020000000000000000000000000AA
S315080029E010B504001048114B026852689A4214D177
S315080029F0836A022B15D1200003F054FA0C4902F021
S31508002A0043FF0C4902F0D6FB0B4902F03DFF021CBE
S31508002A1000210A48FFF7DCFD10BDFFF7F9FC002886
S31508002A20E9D1FC229205F3E73019002011240008A9
S31508002A30A261A8B93333D33FCA269B3E0C170020A0
S31508002A40036870B5984217D000250E4E1A680260C2
S31508002A5050601A7D042A10D132009C689D611D754C
S31508002A6012689168A142FBD251681A6059600B60DE
S31508002A70536003689842E9D170BD72B6024B73641D
S31508002A80FEE7C046F8170020B06100080000000005
S31508002A90384BF0B5C3608023DB055F6A0261042901
S31508002AA000D20421344D2A002B691032934242D0B9
S31508002AB0EA69BC1A94460A1994421CD89C68A24230
S31508002AC030D3A24206D9984211D01B68121B9C68C3
S31508002AD0A242F8D85968036041600860586082606D
S31508002AE099688A1A9A6001235B42AB61F0BD72B697
S31508002AF0224B6B64FEE79E68B44233D91A0000275E
S31508002B0097601268A41B9668A642F9D367463F19D0
S31508002B10EF612F001037BA4201D0361B96600A00C3
S31508002B209C68CEE78026F605F168890716D56146C2
S31508002B3089187163C5E70222EF612861686103603D
S31508002B404360802314008160DB05D8680440024294
S31508002B500BD1CF195F631C61DA60C7E772B6084B01
S31508002B606B64FEE71A00EF61D7E772B6054B6B6434
S31508002B70FEE7C046A11C0008F8170020A862000856
S31508002B80E461000850620008000000000000000030
S31508002B90044B9B68002B00D1704772B6024B034A60
S31508002BA05A64FEE700240140F81700202062000856
S31508002BB010B50F244A681368A34313600E230A68E6
S31508002BC0497B8B40536083685B0709D5102283686D
S31508002BD0134383601100836819401A42FAD1416091
S31508002BE010BDC04600000000000000000000000004
S31508002BF070B504000B0711D40569002D0DD08B079D
S31508002C0025D52B78002B2ED06B68002B05D00422F7
S31508002C10027098472378042B3BD070BDC169806940
S31508002C20FFF7C6FF23699B68002B17D005220021F2
S31508002C302000227098472378052B0FD072B6012101
S31508002C40200049421430FFF75BF862B6E5E749070A
S31508002C50E3D56B68002BE0D09847DEE702232370A4
S31508002C6000232361EAE7C1698069FFF7A1FF6B6862
S31508002C70002B11D004222000227098472378042BB9
S31508002C800AD072B6200000211430FFF739F862B670
S31508002C90C3E7013B2370C0E70223237000232361A7
S31508002CA0EFE7C0460000000000000000000000003A
S31508002CB00B4B10B5D96808751868026853601A6016
S31508002CC00122D8600275EFF309820C69243A94420E
S31508002CD002D8FEF769FE10BD72B6024A5A64FEE7CC
S31508002CE0F8170020E45F000800000000000000005C
S31508002CF010B5010086B072B60E4C01A8E268FFF75F
S31508002D00C7FE0820FFF7D4FF049B002B02D001A8BA
S31508002D10FEF76EFF2368A34204D0E2689B689268B8
S31508002D209A4202D362B606B010BD72B6024B63640D
S31508002D30FEE7C046F81700204462000800000000BD
S31508002D40F0B54F464646D646C0B581460E0086B013
S31508002D5072B64D4D2B781A1F012A3BD8E022520530
S31508002D60924608229046494FA84411E022003100B5
S31508002D7001A8FFF78DFE0420FFF79AFF049B002B9E
S31508002D8002D001A8FEF734FFA369002B16D12B78D1
S31508002D90052B04D05146EB6B9A680A424DD143463F
S31508002DA0FC682360EB6863601C60EC60731CDDD113
S31508002DB00420FFF77DFFA369002BE8D03B68BB42E0
S31508002DC034D0FA689B6892689A422FD272B6304B12
S31508002DD07B64FEE772B62D4B2E4A5A64FEE79A6864
S31508002DE09201920F183212019B184A4611788A06E8
S31508002DF036D54A46C8065268C00F4000D20002437C
S31508002E00042002430907090F5960494689689960F1
S31508002E104946C968D96001210A431A603B68BB4222
S31508002E2004D0FA689B6892689A4225D362B606B0BF
S31508002E30E0BCBA46B146A846F0BD174A174912681B
S31508002E40120C8A42CBD09A68520111D49A681201A0
S31508002E5016D49A68D200E1D5D02252009B18C4E74E
S31508002E604A46C8069288C00F520540000243C9E781
S31508002E70C02252009B18B8E772B6054B7B64FEE782
S31508002E80C82252009B18B0E72C0A0020F817002029
S31508002E90F0620008F06100080058014001100000C7
S31508002EA070B5150072B60A00203A82181100243946
S31508002EB01061D1600B6100234B612A4B2A4C0B62CF
S31508002EC00223E1689382236895608868A34202D04A
S31508002ED09B68984218D300239361854218D81375C6
S31508002EE023001B6899688D42FBD9596813605160A5
S31508002EF00A605A602368A34204D0E2689B68926815
S31508002F009A4226D362B670BD72B6184B6364FEE762
S31508002F100D7D002D19D00F2D17D00B7523001B68BA
S31508002F209D68A842FBD358680B60486001605960E9
S31508002F300123E2601375EFF309830869243B98427D
S31508002F400BD81000FEF730FDD4E772B6084B636461
S31508002F50FEE772B6074B6364FEE772B6064B636418
S31508002F60FEE7C046C9190008F817002010620008D5
S31508002F709C61000844620008E45F00080000000045
S31508002F80F0B557464E464546DE46E0B501260722C9
S31508002F908E409346083292460C3A8846040035001D
S31508002FA00023022101279146B44689B007E0226A28
S31508002FB00098824322626D0824D0890001332F428B
S31508002FC0F9D05A4656461A4092003800964098401C
S31508002FD000964E4662688243580086406260A26840
S31508002FE0B243A260E268B2430A43E2602268B2438F
S31508002FF02260072BDBD9626A00986D0882436262F9
S31508003000002DDAD1664672B6424F0A21FA6803A83D
S31508003010FFF73EFD0820FFF74BFE069B002B02D06C
S3150800302003A8FEF7E5FD3B68BB4204D0FA689B6837
S3150800303092689A4266D362B6424623690121D34012
S3150800304001221A4007239B4608339A460C3B0192F5
S3150800305099460122BC4607E0236A00988343236207
S31508003060760824D0920001353142F9D05B4657469E
S315080030702B409B0008009F40A84000974F46636876
S315080030808343680087406360A368BB43A360E36823
S31508003090BB431343E3602368BB432360072DDBD997
S315080030A0636A0098760883436362002EDAD167461E
S315080030B072B60A21FA6803A8FFF7EAFC0820FFF7A8
S315080030C0F7FD069B002B02D003A8FEF791FD3B688F
S315080030D0BB4204D0FA689B6892689A4216D362B6D5
S315080030E0434622690120DA4001231340019A9A4295
S315080030F006D009B0F0BCBB46B246A946A046F0BD0C
S315080031005000F6E772B6044B7B64FEE772B6024BD4
S315080031107B64FEE7F8170020446200080000000000
S315080031201B491C4B0A6870B51B4D9A4204D1802274
S315080031302800520001F0D4FF01211848FFF720FFAC
S31508003140040090200821C005FFF71AFF63001B1929
S315080031501818082805D8124B80001B589F460223CA
S315080031602B71280070BD07232B71FAE700232B71FA
S31508003170F7E703232B71F4E704232B71F1E7012307
S315080031802B71EEE705232B71EBE706232B71E8E796
S31508003190007C000801BEADDE0C16002000040048C5
S315080031A0F45F0008000000000000000000000000B6
S315080031B0F0B557464E46DE4645460023E0B591B083
S315080031C09A469946009372B6D54DD64E2B78043B4F
S315080031D0012B00D91AE1D44B0593D44B0393D44B56
S315080031E00493D44B0193D44B029301239B4610239B
S315080031F098460327A8442B78052B00D1E9E0EB6B0A
S31508003200DA68174200D1E0E00320DA68024200D10A
S3150800321000E1D822DA21DC245200490064009A58D9
S3150800322059581C590E94DE2464001C592024DC606D
S31508003230DC68044203D102205C69204358615B467E
S315080032405408234000935B460F279008034099468D
S3150800325006AB1B7D4846BB435F463C4057463B434F
S3150800326010272401BB4323432024DBB24001A34398
S31508003270034306A80375234200D0E7E006AB1B8B81
S31508003280520DDB0ADB02134306AA13830F230B40F6
S315080032909A463368B34205D0F2689B6892689A42A8
S315080032A000D220E162B60F2206AB1B7D9343009A3B
S315080032B0110152461343102293430B434A462021D9
S315080032C052018B43134306AA13750B4200D197E0AC
S315080032D00F221A40022A00D1CEE00E210B4200D15D
S315080032E0BBE0012A00D08BE00C9B944ADB00DB088C
S315080032F0934200D084E0FFF713FF2022049B186056
S3150800330006AB9B181B7803718D4B1A69120603D5F9
S315080033108C4A5A608C4A5A60894B5946DA680A427E
S31508003320FBD1022219690A431A61F822D2015A61AD
S31508003330402219690A431A61C046814B5946DA6820
S315080033400A42FBD102211A698A431A611A697E3137
S315080033500A431A611A690A4203D07A4A5A607A4AB3
S315080033605A60774A59465846D36819400342F9D1F4
S315080033708024734A64005F46019B585A13693B438D
S315080033801361029B58525846D3681842FBD11369F9
S31508003390023183431361A142EDD1802311690B43A6
S315080033A01361079B694A5B0F5B071343079306ABD9
S315080033B01A783F2301219A431F3B134306AA10009C
S315080033C013704942FFF7BCFC1AE01A69174200D08D
S315080033D01AE74346F468042023606B6963601C603F
S315080033E06C61FFF765FCA369002B00D103E733681E
S315080033F0B34204D0F2689B6892689A4238D362B6A0
S3150800340072B62B78043B012B00D8F0E672B6504B07
S315080034107364FEE71A69024200D13AE7E022E22124
S31508003420E4245200490064009A5859581C590E94CD
S31508003430E62464001C5920241C611C69044200D03F
S31508003440FDE61024586920435861F8E60C9BD2081B
S315080034505B0F5B0713430C9318E7EF210C9B0905D9
S31508003460DB00DB088B4200D03BE7002A11D11BE0CA
S3150800347072B6384B7364FEE70C993748C900C90819
S31508003480814234D00E221342BAD1EF231B0599424A
S31508003490B6D1202206AB9B181C78FF2C04D0FFF768
S315080034A03FFE0379A342ABD1079B284A5B0F5B0714
S315080034B01343079306AB1A783F2301219A431F3B10
S315080034C0134306AA100013704942FFF739FC32204D
S315080034D0FFF70EFCBFF34F8F204B214ADA60BFF38C
S315080034E04F8FC046FDE772B61A4B7364FEE721217B
S315080034F006AB5B1859461B780B40D31A059A13601E
S31508003500202206AB9B18187802F0CCFC1549041C3F
S31508003510FEF726FB002829D0134B039A13606FE7A2
S315080035202C0A0020F8170020100B0020E0150020B8
S31508003530B80C00200C160020007C00080000F40ED1
S315080035400020024023016745AB89EFCD73757200F1
S3150800355074610008F06200080000F50E00ED00E056
S315080035600400FA0500004842000060410349201C97
S3150800357002F08AF9039B186042E7C046CDCCCC3DE1
S31508003580F0B54746CE46264B264D9946264B80B57E
S3150800359098462B68254F5B68254E264C87B0BB425C
S315080035A02ED1AB6A022B2FD133681B684B4533D11A
S315080035B0326921494046FEF7A3FD204902F064F925
S315080035C002F050FCFFF70CFA72B61421E26801A863
S315080035D0FFF75EFA0820FFF76BFB049B002B02D06F
S315080035E001A8FEF705FB2368A34204D0E2689B689E
S315080035F092689A420CD362B62B685B68BB42D0D0FD
S31508003600280098470028CFD10020FFF7E9F9DBE723
S3150800361072B60B4B6364FEE730009847021CC8E796
S31508003620A121000830190020E41500201124000803
S3150800363028170020F81700206666E63E00007A4440
S3150800364044620008000000000000000000000000BE
S31508003650F0B5DE4657464E464546E0B593B0FFF709
S315080036605FFD431D9B4645239A46724B04009846C8
S315080036708523E35C704E8244022B00D1C2E0022B04
S315080036804ED8002B00D1C6E00120FEF759FF6B4942
S3150800369002F0FAF8051C2022594602A801F020FD7E
S315080036A0202251460AA801F01BFD654B9D4249D1CF
S315080036B00023002799460125202302AAD218AD0027
S315080036C05159381C02F0E0F8051CFE20391C80050B
S315080036D002F028FA2023494602AAD318595802F0BC
S315080036E0D3F8011C281C01F065FD564902F0CCF8F8
S315080036F05549051CFEF73EFA002800D1524D002117
S31508003700281CFEF74BFA002800D1002543461F68FF
S315080037105D603B78022B4DD072B64C4B7364FEE766
S31508003720032B04D10120FEF70BFF051CB3E720226B
S31508003730594602A801F0D4FC202251460AA801F0F5
S31508003740CFFC00250298291CFEF728FA0028AFD1DD
S315080037500998291CFEF70EFA002864D102AB99468F
S3150800376007004B46291C586800970137FEF70CFAE4
S31508003770002806D104239C46E144072FF1D10333E0
S315080037800093009B281C9A009146494602AA57585E
S31508003790391C02F0C7F9009B02AA5D1CAB00391C54
S315080037A00190D05802F0BEF9011C019801F0A2FE62
S315080037B0071C81E72649281C02F066F801F0E2FC9E
S315080037C0002182B23800FEF723FC72B66421F26843
S315080037D00AA8FFF75DF90820FFF76AFA0D9B002B88
S315080037E002D00AA8FEF704FA3368B34204D0F26896
S315080037F09B6892689A420AD362B68523E35C022BD9
S3150800380000D03CE70020FEF79BFE051C43E772B696
S31508003810104B7364FEE70020FEF792FE074902F09C
S3150800382033F8051C37E7FE27182307259946BF05F1
S3150800383042E7C04600160020F817002033336B41D4
S315080038400000C07F9641293F33335340C0620008C9
S31508003850181D9B4444620008000000000000000098
S31508003860F0B5DE4657464E464546E0B50A2085B0D1
S31508003870FFF73EFA72B6604C604E6369002B03D0C0
S3150800388072B65F4B7364FEE75E4B5F4F98465F4BBD
S3150800389099465F4B9A465F4B9B462378022B05D089
S315080038A0052B03D072B65C4B7364FEE74346A360F0
S315080038B01823E3604B4641462361E369226A5B6845
S315080038C00320D9604821207059601A601A68473960
S315080038D00A431A60A3691A681A6090225A6000227D
S315080038E01A620D3259619A624C4ADA600422996862
S315080038F00A439A602200F368143263619A61FFF7FB
S31508003900D7F93368B34204D0F2689B6892689A4242
S315080039106DD362B641464346002090311A88063375
S3150800392080189942FAD102F00FFB3D4901F0ACFF2D
S31508003930414600905346002092311A880633801873
S315080039409942FAD102F000FB41465B4600250290F7
S3150800395094311A880633AD189942FAD18023314A30
S31508003960009851694B405361B96801F023FCFC216A
S31508003970890501F089FF7B680390191C019301F002
S3150800398019FCFC21890501F07FFF0199386103982C
S3150800399002F0C8F840002449400801F075FF2349A1
S315080039A00390F86801F070FF011C039801F002FC0F
S315080039B0F860280002F0C8FA011C029802F0B2F872
S315080039C01B4901F061FF1B49051C786901F05CFF82
S315080039D0011C281C01F0EEFB019B7861BB60009B73
S315080039E07B6072B66369002B00D049E755E772B66B
S315080039F0114B7364FEE7C046080A0020F81700203A
S31508003A006861000848170020281700201061000880
S31508003A104A1700204C170020946200080120000075
S31508003A20BEA45037000400486F12033BEE7C7F3F6C
S31508003A309C44343548E17A3FB4620008000000002F
S31508003A40F0B51D4887B0FFF753F91C4D1C4B2800ED
S31508003A502B631C4B4830EB62FEF7F2FC2800503013
S31508003A60FEF7EEFC28004030FEF7EAFC164F174E2C
S31508003A70174C310028003A68FEF712FE72B6FA2192
S31508003A80E268490001A8FFF703F80820FFF710F9D4
S31508003A90049B002B02D001A8FEF7AAF82368A342CC
S31508003AA004D0E2689B6892689A4201D362B6E0E75E
S31508003AB072B6084B6364FEE7102700003019002031
S31508003AC00000434400009643100B002028170020EE
S31508003AD0F8170020446200080000000000000000FB
S31508003AE0F0B557464E46DE464546E0B5734F744B2D
S31508003AF0B9469B46734B8DB00593734B734E9A46E6
S31508003B00734B0193734B0293734B9846734B039312
S31508003B10734B04935B461B68059A1C793368C83453
S31508003B201B686400934200D0C3E0376906AB1A7875
S31508003B30079B00205B0F5B0723430793C0231340B3
S31508003B400822134306AA137013000022DA81A02361
S31508003B5006AA1372FEF7F4FC624901F095FE01F01D
S31508003B6011FB06AB5881336830001B69984701F092
S31508003B7009FB06AB988153461B68019A5B6893421A
S31508003B8000D092E053469D6A023D6B425D41EDB21C
S31508003B905549381CFDF7F8FF00287CD05349381CD6
S31508003BA0FDF7DEFF431E984140420540FA2106AB69
S31508003BB018005D728900FFF7C3F83368029A5B69DB
S31508003BC093426FD1F1684A4801F094FCFE218905B9
S31508003BD001F0A8FF011C474801F08CFC464901F09A
S31508003BE0A1FF06AB1A78079B01345B0F5B071C43E2
S31508003BF0C0231A4008231A4306AB07941A700022FA
S31508003C00DA7301F0BFFA06AB18813C49381C01F09B
S31508003C103BFE01F0B7FA06AB588143463849D868E7
S31508003C2001F032FE01F0AEFA06AB1873039B06AA42
S31508003C301B783349537352465823D35C049A02338C
S31508003C4094469B006344586801F01EFE01F09AFAF8
S31508003C50FA2106AB987389001800FFF771F872B657
S31508003C604B466421DA6806A8FEF712FF0820FFF71C
S31508003C701FF8099B002B02D006A8FDF7B9FF4B4693
S31508003C801B684B4505D04A46D2689B6892689A429B
S31508003C9003D362B63EE7002588E74F4672B6194B4E
S31508003CA07B64FEE7300098479BE750469847050037
S31508003CB06EE730009847071C38E7C046F81700201B
S31508003CC0B80C0020A1210008301900202817002070
S31508003CD011240008612200080C170020140B00208C
S31508003CE0D817002000401C463333B33ECDCC0C3FDA
S31508003CF03333534000E0AB460000204100007A44CD
S31508003D0000007F4344620008000000000000000035
S31508003D1070B5164C2068E16803685C60236001236F
S31508003D20E06003750B7D002B17D00F2B15D00023F1
S31508003D300B7523008D681B689A68AA42FBD85A68D7
S31508003D400B604A6011605960EFF309830A69243BE6
S31508003D509A4206D8FDF728FE70BD72B6044B636416
S31508003D60FEE772B6034B6364FEE7C046F817002009
S31508003D709C610008E45F00080000000000000000E5
S31508003D8010B572B6044CE36898610F20FEF790FFF1
S31508003D9072B6024B6364FEE7F81700201463000846
S31508003DA07047C04600000000000000000000000048
S31508003DB07047C04600000000000000000000000038
S31508003DC0FEE7C046000000000000000000000000FA
S31508003DD0F8B5134C134F2500134A14481449803577
S31508003DE082420AD9030040C940C39A42FBD8013A25
S31508003DF0131A9B0801339B00C018874207D9013F55
S31508003E003A1A920801320021920001F015F910348D
S31508003E10AC4204D021686068A268E768E0E7F8BDAC
S31508003E20EC630008901900209019002090190020D2
S31508003E30F464000800000000000000000000000014
S31508003E40F0B54746102380B42F4FFF33BE68F046BF
S31508003E503568F46934621C4219D07B681B69002BEB
S31508003E6015D00122E10811400901224201D003328E
S31508003E701143A20701D508221143620701D5202262
S31508003E801143E20501D540221143380098474023E3
S31508003E90234201D02B422AD110232B420DD0234294
S31508003EA00BD07B685B69002B01D0380098474346E6
S31508003EB00F3309D180BCB846F0BD6D01F7D524058E
S31508003EC0EFD443460F33F5D072B6EFF30983203BA0
S31508003ED083F3098880225204DA610C4A1168D26891
S31508003EE08968926891420CD9094A9A61E2E72A00E0
S31508003EF09A437B6832605B68002BCDD038009847C0
S31508003F00CAE7044A9A61D5E7EC0A0020F8170020A8
S31508003F10D7190008DA1900080000000000000000A0
S31508003F20734600B50F3300D100BD72B6EFF30983AF
S31508003F30203B83F3098880225204DA61064A116815
S31508003F40D26889689268914202D9044A9A61EBE775
S31508003F50034A9A61E8E7C046F8170020D71900080F
S31508003F60DA19000800000000000000000000000048
S31508003F70734600B50F3300D100BD72B6EFF309835F
S31508003F80203B83F3098880225204DA61064A1168C5
S31508003F90D26889689268914202D9044A9A61EBE725
S31508003FA0034A9A61E8E7C046F8170020D7190008BF
S31508003FB0DA190008000000000000000000000000F8
S31508003FC0174810B510307446FEF702F80E21154A48
S31508003FD013681B0A1940144B1B680B4207D00B02C7
S31508003FE05360124A9369002B01D0D06998470F3461
S31508003FF000D110BD72B6EFF30983203B83F309881D
S3150800400080225204DA610A4A1168D268896892687D
S31508004010914202D9074A9A61EBE7074A9A61E8E7AB
S31508004020446300080000024030000240F0180020F7
S31508004030F8170020D7190008DA1900080000000050
S3150800404070B5154C754620003030FDF7C1FF2000CD
S315080040504030FDF7BDFF20005030FDF7B9FF2000C6
S315080040606030FDF7B5FF0F3500D170BD72B6EFF3BE
S315080040700983203B83F3098880225204DA61074AC0
S315080040801168D26889689268914202D9044A9A618D
S31508004090EBE7044A9A61E8E744630008F81700204A
S315080040A0D7190008DA19000800000000000000000F
S315080040B0F8B5334C7646A069276905680560002F70
S315080040C008D0EB0604D5E1694B685B68002B34D150
S315080040D02D0602D40F361AD1F8BDE169A069FEF79C
S315080040E067FD23699B68002B3FD00522022120002B
S315080040F0227098472378052B37D072B60121200005
S3150800410049421430FDF7FCFD62B60F36E4D072B6AC
S31508004110EFF30983203B83F3098880225204DA618E
S31508004120184A1168D26889689268914202D9164A73
S315080041309A61D1E7154A9A61CEE7FEF739FDBB6861
S31508004140002B17D0052201212000227098472378DA
S31508004150052B0FD072B60121200049421430FDF715
S31508004160CFFD62B62D06B5D5B7E702232370002327
S315080041702361C2E70223237000232361EAE7C046CE
S31508004180080A0020F8170020D7190008DA190008CD
S3150800419070B5614C7646E26B936893600122150010
S315080041A01D401A4202D00B321A424FD1DA0506D503
S315080041B0C0221201134246D0802292021543DA0326
S315080041C006D5C022120313423AD08023DB021D43D0
S315080041D072B620000830FEF733FC636A1D43A36AF3
S315080041E06562002B02D020002430984762B6E36B44
S315080041F0DD68AA0700D065E010222A4200D07AE0DE
S315080042001D69AA0725D110222A423AD15A685A604E
S31508004210520747D40F3600D170BD72B6EFF3098343
S31508004220203B83F3098880225204DA613B4A1168ED
S31508004230D2688968926891426BD9394A9A61EBE7E4
S3150800424004231D43C4E702221543B8E780256D02FF
S31508004250ACE710215A698A435A6172B620001030B9
S31508004260FEF7EEFB0222A3691343A361E369002B61
S3150800427002D020001830984762B61022E36B2A4213
S31508004280C4D01A6172B6236B13432363636B002B86
S3150800429002D020003030984762B6E36B5A685A60FD
S315080042A05207B7D59B6972B6226B1B041343236367
S315080042B0636B002B02D020003030984762B60F3669
S315080042C0AAD0AAE702215A698A435A6172B620001F
S315080042D01030FEF7B5FB0122A3691343A361E36916
S315080042E0002B02D020001830984762B61022E36BE4
S315080042F02A4200D184E7DA6072B6236B134323633C
S31508004300636B002B02D020003030984762B6E36B0F
S3150800431076E7044A9A617FE72C0A0020F8170020FE
S31508004320D7190008DA19000800000000000000008C
S315080043300E21144B10B51A6874461140124A1268B9
S315080043400A4206D0114A59609368002B01D0D068FA
S3150800435098470F3400D110BD72B6EFF30983203B9E
S3150800436083F3098880225204DA61094A1168D268FF
S3150800437089689268914202D9064A9A61EBE7064A29
S315080043809A61E8E70000024008000240F0180020A1
S31508004390F8170020D7190008DA19000800000000ED
S315080043A0F8B58023DB051A6946469846DB684F460A
S315080043B01340FF221A40D2434146C0B4F1460A616F
S315080043C09B0719D44B460F3303D1C0BCB946B04638
S315080043D0F8BD72B6EFF30983203B83F30988802280
S315080043E05204DA612C4A1168D26889689268914247
S315080043F049D92A4A9A61E8E772B6274C486A236976
S31508004400E2699968851A8D421FD32600103600275F
S3150800441008E062B61869884772B6236999688D42BA
S315080044200DD3E2698A18E2611A686D1A5660D9686E
S315080044302261DF60B242ECD14246D760E9E74246E4
S31508004440506AE269851A8D42E1D2210010318B4209
S315080044501CD09968E061091A8A189A608023DB05DE
S31508004460DB689B0714D51300042A00D20423802294
S31508004470C118D2055163526A121A934206D272B60D
S31508004480074B6364FEE7074A9A619EE762B699E7B7
S3150800449072B6054B6364FEE7F8170020D7190008C3
S315080044A004620008DA190008E46100080000000048
S315080044B010B574460D48FDF7EBFD0F3400D110BD5D
S315080044C072B6EFF30983203B83F3098880225204EE
S315080044D0DA61074A1168D26889689268914202D9F6
S315080044E0044A9A61EBE7044A9A61E8E7B40A0020AD
S315080044F0F8170020D7190008DA190008000000008C
S3150800450010B574460D48FDF7C3FD0F3400D110BD34
S3150800451072B6EFF30983203B83F30988802252049D
S31508004520DA61074A1168D26889689268914202D9A5
S31508004530044A9A61EBE7044A9A61E8E7B40A00205C
S31508004540F8170020D7190008DA190008000000003B
S3150800455010B574460D48FDF79BFD0F3400D110BD0C
S3150800456072B6EFF30983203B83F30988802252044D
S31508004570DA61074A1168D26889689268914202D955
S31508004580044A9A61EBE7044A9A61E8E7D00A0020F0
S31508004590F8170020D7190008DA19000800000000EB
S315080045A0EFF30983203383F3098862B67047C04660
S315080045B0FC22464BD203996A10B511439962996A4F
S315080045C04348A82401409962996A596941480A43AF
S315080045D05A6190215A690022C9054A6088603E4896
S315080045E0E401C860842080054A6108623B48486245
S315080045F03B4808603B493C484A608860C8604A6155
S315080046000A624A620C603949394C4A608860C86057
S315080046104C610A624A620A6036494A608860C86024
S315080046204C610A624A620A6001211A680A431A60E2
S3150800463001311A681142FCD003215A688A435A602C
S315080046400C22224910004B6818401A42FAD1F92365
S315080046500A68134001220B6048604B6B13434B6397
S3150800466002211A4A536B1942FCD00121536A0B43A3
S315080046705362164A0131536A1942FCD08421002339
S315080046804903D36251601363802311685B040B43AB
S31508004690136080220D4992040B681342FCD0112343
S315080046A00121154A136013681942FCD00221074AF2
S315080046B053680B4353600A3153680B40082BFBD1F0
S315080046C0012193690B439361936910BD0010024061
S315080046D0FFFF81FF5555FD7F5555552511400400AF
S315080046E03FAFA8AA0004004855555555000800488C
S315080046F0FFFF0000001400480020024000000000F0
S315080047002B4BF0B5996ADE4657464E464546294A2A
S31508004710E0B50A43FC219A629A6AC9030A409A627A
S315080047209A6A1A690122002052421A611A691861A6
S315080047301A69D968204A8DB00A438021DA60DA6896
S31508004740C9030A40DA60DA688022D96952050A4341
S31508004750DA61DA698022194952000C6822430A6034
S31508004760C0211A6A89000A400139FF398A4203D0F2
S31508004770802252021A62186280220D4B1202196AAE
S31508004780114207D18021186A890001431962196A02
S315080047900A431A620A4B00241A0003930023136083
S315080047A05360084B08491800049370300FE0C04660
S315080047B000100240FFFF81FFFFFFBFFF00700040AF
S315080047C0F0180020446300080800024059681033B6
S315080047D00C60083214608342F8D10122E84B524239
S315080047E05A6003210520FDF7ABFA03210620FDF7E1
S315080047F0A7FA03210720FDF7A3FA03211B20FDF7DB
S315080048009FFA03211C20FDF79BFA03211D20FDF7C3
S3150800481097FADC4BDC4D994601234A461370DB4B6D
S3150800482002210C20136254609460D46014615461B0
S315080048309561D461FDF784FA8022D54B9200996977
S315080048400A439A619B69D34B1C60FEF7A1F9802342
S31508004850AA681B061343AB60AB68002BFCDB00247D
S31508004860CB4BAC609846CC4A9B69CC4E134042462B
S31508004870936143469B6933000833B360F3603300A2
S315080048800127C74D1033B461336173617462032124
S315080048901E20F4613462B462F46234637463B463F0
S315080048A0F56337707460FDF74BFA4346DA6980237F
S315080048B09B0413434246D361802243469200DB6938
S315080048C0AB58B8491B0C1B043B43AB50AB580F20E5
S315080048D01B0C1B040B43AB5090239B00EC5004337A
S315080048E0EC50403BEC501033EC50083BEF50103383
S315080048F0EF50AB58AC49BB43AB504346AB4ADB69B8
S3150800490013404246D3614346A94ADB69A94B05923F
S31508004910D361A94B17709B46146154619461146264
S315080049205A461F701C615C619C61A44B1462D3617A
S315080049300422A34B1F70DC601A745C609961A14B5A
S3150800494002211A74A04A1F70DC605C609A619F4B52
S315080049509F4ADC619A609F4A1F80DA6008229C7031
S315080049601A615A615C609C6143464246DB693B4377
S31508004970D3614346984ADB6993683B439360802337
S31508004980DB059A465246954B936201235B42D362F6
S3150800499094615463D460546057611760FDF7D0F989
S315080049A08F4A9049136A904D0B40136201235B426C
S315080049B0AB615346AC60EC615B6A2A000093002346
S315080049C0103201932A616A61009A019B2A626B621E
S315080049D06B642B002833EB60844B0021AB63844B5C
S315080049E0A03118005B506C30043958508149802238
S315080049F0D967002199508C212A637F4AAF875A507C
S31508004A0098229F500C329C52143A9D5004329D5065
S31508004A1090332B606B6062B678481830FDF710FD4E
S31508004A2072B64B461B785A1E012A00D920E24A461E
S31508004A3001995160012B00D1D7E102234A46137030
S31508004A402B68AB4205D0EA689B6892689A4200D206
S31508004A5017E262B6D02180248522694B694849004D
S31508004A60FEF71EFA684B5B4A18686849E4005A6004
S31508004A701C81FDF78DF90020FDF7B2FF644F654BE9
S31508004A80386865497B603C81FDF782F95823634C99
S31508004A903800E15C0022FDF79BFDD0218122604BA6
S31508004AA060484900FEF7FCF9D0215F4B84225F4835
S31508004AB04900FEF7F5F95E4B1F689846002F00D1AE
S31508004AC08FE172B63B785A1E012A00D985E1594A08
S31508004AD000923A61012B00D1BAE002233B702B68A1
S31508004AE0AB4205D0EA689B6892689A4200D2CCE14C
S31508004AF062B6424600231068536003789846022B34
S31508004B0003D072B64C4B6B64FEE700221100FDF72A
S31508004B107FFAD0218022494B49004948FEF7C0F95F
S31508004B20FEF7FEFA474B186072B63778012F03D0A6
S31508004B3072B6454B6B64FEE7434680223370434B9F
S31508004B4092047360124BD9690A43DA61DB69F36B25
S31508004B501F6008239846F36B5A683A4200D0AAE0C9
S31508004B603900EA6807A8FDF793FF4046FEF7A0F864
S31508004B700A9B002BEFD007A8FDF73AF8EBE7C046EB
S31508004B8000000240080A0020002401408A2500008F
S31508004B900010024008270140FFFDFFFF2C0A0020F5
S31508004BA000640040010E0000002C0140FFFFFFFDDD
S31508004BB06C0A0020B4630008900A0020D06300083D
S31508004BC0B40A0020D00A002000040040EC0A0020A5
S31508004BD000380140006CDC0200580140BF1200009A
S31508004BE000ED00E0FFFF00FFF81700200006002098
S31508004BF040180020911C0008C91900082817002031
S31508004C0061380008401400200C1700206060000876
S31508004C10D8170020801A060098600008301900206E
S31508004C20413A0008A012002081350008180B002020
S31508004C3000160020000A0020C0620008513600084D
S31508004C4000110020B80C0020FC620008186000085B
S31508004C5005998F4226D000215F4509D18D49C8693B
S31508004C6084468020624680051043C861C9691900D8
S31508004C70FB6999464A461B68D0689C461B681840DB
S31508004C80009B5B689A460123524613434A4692683C
S31508004C909340624603431360009B38001A88FDF769
S31508004CA0B7F91AE780217B4B8905D8690143D96191
S31508004CB0DB690021DCE7726851681268D9611A60FD
S31508004CC0754A5A61042333702B68AB4204D0EA68EC
S31508004CD09B6892689A4231D362B6D02180226F4B84
S31508004CE06F484900FEF7DCF8A8216E4B7C226E4817
S31508004CF08900FEF7D5F86D4BA0469B466C4B009392
S31508004D0040239A46203B99465B461E78002E1FD1C3
S31508004D104A465146674B5A835A694A405A6143463E
S31508004D201B68009A5B6893420CD143469B6A022B28
S31508004D300CD0FA204000FDF7DBFFE5E772B65E4BC4
S31508004D406B64FEE7404698470028F2D05B48F2E7D6
S31508004D5053460027574C760063834A466369534097
S31508004D60636172B65649EA6807A8FDF791FE0820FE
S31508004D70FDF79EFF0A9B002B02D007A8FCF738FF19
S31508004D802B68AB4204D0EA689B6892689A421CD3A7
S31508004D9062B60137BE42E0DC72B64A49EA6807A83D
S31508004DA0FDF776FE0820FDF783FF0A9B002B02D04D
S31508004DB007A8FCF71DFF2B68AB4204D0EA689B687E
S31508004DC092689A4205D362B69EE772B63E4B6B640A
S31508004DD0FEE772B63C4B6B64FEE772B63B4B6B6400
S31508004DE0FEE772B6394B6B64FEE7039A12681A42FD
S31508004DF006D04B46019ADA6172B6354B6B64FEE70C
S31508004E00039834491A438160010048460A604246BD
S31508004E10C860404652691A43426142464C68526924
S31508004E201C4229D001270F21039B3C435C602A4B77
S31508004E3000201A688A431A60284A013951604A468E
S31508004E4004991860D1618021124A89009469214326
S31508004E5091619269224A9A604B469B691861FDF7EF
S31508004E6097FE4B469B699F601A683A42FCD0E4E578
S31508004E7072B61C4B6B64FEE702210920FCF760FF43
S31508004E80D0E772B6184B6B64FEE772B6174B6B64C5
S31508004E90FEE7C046001002405B870100E13A0008C1
S31508004EA0600F0020B1310008C00C0020140B002050
S31508004EB01124000800040048F0620008581B00008E
S31508004EC0B80B0000204E000044620008206300086A
S31508004ED0C4610008F12B00080800024000000240E7
S31508004EE040240140E4620008B46200080863000830
S31508004EF000B589B001002022684600F0F1F8EFF30A
S31508004F00058300BEBFF34F8F034B044ADA60BFF335
S31508004F104F8FC046FDE7C04600ED00E00400FA05E5
S31508004F2010B5FFF7E5FFC0460000000000000000CE
S31508004F3010B5FFF7DDFFC0460000000000000000C6
S31508004F4070B5002400253421264B274A5C601A6078
S31508004F501C81264A264B274E5A60274A5D549A607A
S31508004F60DA60264A2F391A619963254A3731083695
S31508004F701E60D9635826F02100205A6100220906CE
S31508004F809D55204E186459649864D9641865596506
S31508004F909A61DA611A625A629C62DA621A631A4B79
S31508004FA008361E605A609A609861D961DA601A619B
S31508004FB05A611649164B1960164B1749DA6019607B
S31508004FC016495A61596016499A6199601549164AEF
S31508004FD01961164B1A605C60154A1C81154B1D71C8
S31508004FE01A6070BDD8170020B40A0020CDCC4C3DFD
S31508004FF0301900202C6100089A99993E0AD7233C5B
S315080050000000404048610008281700206C0A00206C
S3150800501000160020E41500206F12033B00004842EA
S3150800502000401C4600002041D00A00200C17002032
S3150800503001BEADDE0C160020F0B50500830749D089
S31508005040541E002A45D003000326CAB202E00135E1
S31508005050013C3ED301332A703342F8D1032C30D9B0
S31508005060FF250D402A022A43150415430F2C34D96F
S315080050702700103F3F093E01B4461E001A001036AD
S315080050806644156055609560D5601032B242F8D115
S3150800509001373F01DB190F270C22274022403C002D
S315080050A0002A0ED03E1FB608B400A4461A001C1DDE
S315080050B0644420C2A242FCD103240136B6009B19DF
S315080050C03C40002C05D0C9B21C19197001339C420A
S315080050D0FBD1F0BD03001400C0E72700E2E7C04695
S315080050E0F0B5C64600B50F2A41D9032403002600A9
S315080050F00B431E401C423FD11500103D2D09A84602
S315080051002D01AC4603000C00844427681D001F606F
S3150800511067685F60A7689F60E7681034DF601033D0
S315080051206545F2D145460F230C2401352D01491951
S3150800513013404519144222D08C59AC5104369C1B95
S31508005140032CF9D8043B9B0801339B00ED18C918BA
S3150800515003231A40561E002A06D00023CC5C1A00E8
S31508005160EC5401339642F9D180BCB846F0BD05002F
S31508005170561E002AF1D1F7E70500561EEDE71A007C
S31508005180F6E7C0469E2110B5C905041CFCF706FDC6
S31508005190002803D1201C00F065FE10BD9E21201CAE
S315080051A0C90500F0BFFC00F05DFE80231B069C4687
S315080051B06044F2E7F8B54746CE464A024302450040
S315080051C0C40F500A804648005B0A000E92099446AE
S315080051D080B51E00814602002D0EDF00C90F8C42E5
S315080051E024D0281A00280EDD002A3ED16246002A5D
S315080051F000D1FDE0421E012800D137E1FF2800D189
S31508005200A9E0100039E0002863D04B46521B002D58
S3150800521000D0E0E0002F00D1CEE0531E012A00D1D5
S3150800522055E1FF2A00D194E01A00D9E02A1A002A8B
S3150800523000DC99E0002862D0FF2D00D18BE08023A6
S315080052406146DB0419438C461B2A00DCD2E00123A5
S31508005250DB195A016AD50135FF2D5BD00122A34916
S315080052601A405B080B4013431CE0FF2D00D172E087
S3150800527080236246DB041A4394461B2800DC90E030
S315080052800123FB1A5A0151D59B019E093000FCF7F0
S315080052908FFC330005388340854200DC75E0944A6C
S315080052A02D1A13405A0704D00F221A40042A00D098
S315080052B004335A013CD5681CFE2D2BD09B015E0A8F
S315080052C0C0B2C0053043E4072043C0BCB946B04667
S315080052D0F8BDFE206A1C104272D1002D00D0AEE047
S315080052E0002F00D1ECE063460020002BE9D0FB1A22
S315080052F05A0100D4F3E063460C00DB1BD2E7614693
S3150800530000295BD0511E012A00D1A7E0FF2A22D02E
S315080053100A0099E7FF200026D3E7FE216A1C1142FE
S3150800532073D0FF2AF6D0150067447B085A07BBD10D
S31508005330DB08FF2D0FD05B025E0AE8B2C1E76246C2
S31508005340002A08D08022D203134204D040461042D5
S3150800535001D10C004346002BDCD08026F6031E4301
S315080053607602FF20760AACE7002AD6D0421B002D2B
S315080053705CD0FF28EED08023DB041F431B2A00DC09
S3150800538082E001234D46634463E72022401B013037
S31508005390121A19009340C1405A1E934100250B4327
S315080053A080E7202361461B1A994062460B00C240DB
S315080053B0591E8B41134364E70C0043461500B8E7B2
S315080053C06346FE1A730145D4002E00D05EE700241A
S315080053D00020002675E7FF2BBBD08023DB041F4384
S315080053E01B2A47DD012362460C004D46D31A49E7BE
S315080053F005009EE761462023D1409B1A62469A40E3
S3150800540013005A1E93410B4322E7002D46D1002F65
S3150800541062D063460020002B00D152E73B0063446C
S315080054205A0183D5324A013513407FE7002FC4D08D
S31508005430531E012A12D0FF2A8CD01A009EE7002F8D
S3150800544000D07CE76346002B83D180260024FF200A
S31508005450F60336E763460C00DE1B17E73B0063449A
S3150800546001255A0100D461E70225F7E663460125BE
S31508005470FB1A07E720239B1A38009F403B00D040C1
S315080054805A1E93410343AEE720239B1A39009F40D7
S315080054903B00D1405A1E93410B4373E7002F00D1BE
S315080054A058E76246002A00D155E78022D203134204
S315080054B000D150E74146114200D04CE743464AE73F
S315080054C06346002B83D00C0046460020F9E6634667
S315080054D00C00DB1B0135D5E646460020F1E6002B1D
S315080054E000D023E700240026EBE6C046FFFFFF7D39
S315080054F0FFFFFFFBF0B54F464646D6464502C0B508
S3150800550047000C1C6D0A3F0EC60F002F00D16FE036
