:020000040800F2
:100000000004002091010008150B0008930100086E
:100010009301000893010008930100089301000870
:100020009301000893010008930100089301000860
:100030009301000893010008930100089301000850
:100040009301000893010008930100089301000840
:100050009301000893010008930100089301000830
:100060009301000893010008930100089301000820
:10007000930100089301000893010008010A000899
:100080009301000893010008930100089301000800
:1000900093010008930100089301000893010008F0
:1000A00093010008930100089301000893010008E0
:1000B0009301000893010008D90800089301000883
:1000C00072B6244880F30888234880F30988022008
:1000D00080F31488BFF36F8F00F0D0FB00F022FD97
:1000E0001E481F491B4A914202DA08600431FAE7B0
:1000F0001C49194A914202DA08600431FAE71A49A8
:100100001A4A1B4B9A4204DA086810600431043220
:10011000F8E700201749184A914202DA08600431D2
:10012000FAE700F0AFFB00F0AAFB144C144DAC4210
:1001300003DA216888470434F9E700F08BFD114C9D
:10014000114DAC4203DA216888470434F9E70F49BE
:1001500008470000000400200006002055555555B2
:100160000002002000040020B8160008000600204D
:100170000006002000060020800A0020C0000008C1
:10018000C0000008C0000008C00000088108000886
:1001900096E700F000F8FEE7F0B544464D465646B7
:1001A0005F46F0B46B464B6143699D46F0BCA04688
:1001B000A946B246BB46F0BD62B6281CA047002047
:1001C00000F086FCFEE700F065FC024A024B13607B
:1001D000FEE7C04604ED00E00000008002B4714676
:1001E00049084900095649008E4402BC7047C04680
:1001F00002B4714649084900095C49008E4402BCBA
:100200007047C046036810B50B4303604368002B7A
:1002100000D0984710BDFEE730B572B6074C656850
:100220002B1A484218402368821A9A4204D39542F6
:1002300002D3626062B630BD0020FBE79807002061
:1002400072B6EFF30983203B83F3098880225204BE
:10025000DA61054A1168526988689168034A8842E0
:1002600000D9034A9A6170475C060020CA01000861
:10027000C701000801230249CA681A42FCD170472D
:1002800000200240044B1A69120603D5034A5A6043
:10029000034A5A607047C046002002402301674568
:1002A000AB89EFCD012070B50022FF25074C084E29
:1002B00008494042B35C013243402B409B001B592C
:1002C000000A58408A42F5D1C04370BD1C12000894
:1002D00000180008FC630000F0B50124002225008E
:1002E000284220D02F009740144B5968B94357003B
:1002F000BC4603276646B740596099680726B9434C
:100300009960D968B943D9601968B9432143196024
:1003100011000F27314089008F40F943B24207D8BE
:100320001E6A31401962400806D0A4000132D7E7A6
:100330005E6A31405962F6E7F0BDC04600040048ED
:100340000022431CDA778268054B1B68996891424A
:10035000FBD25A6803604260106058607047C04624
:100360005C060020030010B572B6421CD07F052841
:1003700007D8FFF73DFF0C060603120E00215A6A4C
:1003800011600122524218005A62FFF7D9FF62B68B
:1003900010BD596A8A6801328A6059681A680A6011
:1003A0005160EEE710B504002068844200D110BD12
:1003B000036823605C6000234362FFF7C1FFF3E73B
:1003C00010B50124064B59694A1CD0771868026899
:1003D00053601A60421CD4775861FFF7DDFE10BDF0
:1003E0005C060020F0B54A4C89B063690190009327
:1003F0004B1C00D188E0009B03AD2B61454BEB60AB
:100400008023DB055A6A042900D204212600A3694F
:100410001836B34227D103936B6080236262DB05F9
:100420008A18A561E561A9605A6300221A61023247
:10043000DA600198FFF7C4FF069B03AA002B0ED0D9
:100440002000A169039B1830914240D004990B60B1
:100450005960834203D09968059A8A189A60009B74
:10046000586A09B0F0BD666A9868921B8F18BA4244
:1004700022D91F0004E06046121A0020B8603F68CD
:10048000B86884468242F6D8B618666226001836E6
:10049000B74201D0821ABA609A68914214D85A6859
:1004A00003936A6015605D60A9609A68521A9A6049
:1004B00001235B422362BCE739008742ECD28022F1
:1004C000F619D2055663E7E71B68891AE4E70022AC
:1004D0008025A361ED055860CA60834201D1EA60BE
:1004E000BDE79A68896852189A60616A6B6A581AFF
:1004F0008242B4D9CB1A9B18032B00D8021D80234B
:100500008918DB055963AAE70198FFF759FFA6E7A9
:100510005C0600206503000810B5010072B60820D3
:10052000FFF760FF62B610BD70B5040072B6032518
:100530003D4A1378052B10D0536DD968294209D054
:100540000320DA68024219D11A6902424ED162B61A
:10055000002012E019692942F2D1344B04205E696F
:10056000130010333360536973601E605661FFF7E8
:1005700027FF706A0028DBD062B670BDD822DA216E
:10058000DC25520049006D009A5859585D59256183
:10059000DE256D005D5965612025DD60DD68054261
:1005A00003D102205D692843586101259308500852
:1005B0002B40284000015B01034320792F35A843DD
:1005C000034323719B0627D5D308A268520F520715
:1005D0001A43A2600F22080023791040934303437B
:1005E00023710B0A090C23706180B0E7E022E2213D
:1005F000E425520049006D009A5859585D5925610B
:10060000E6256D005D59656120251D611D69054266
:10061000CBD110205D69C6E7530D2289D20AD202E0
:100620001A432281D6E7C046000600205C0600205F
:1006300030B585B0019B234A5B0F5B0713430193E1
:1006400072B6E0256D05204A1378052B19D0536D3D
:100650009968294215D01D4A1D491268120C8A4218
:1006600021D19A689201920F183212019B18002230
:1006700001995A60C9009A60DA6005320A431A602B
:100680000EE0144B04205C69130008332360D36828
:1006900063601C60D460FFF793FE636A002BD2D0C6
:1006A00062B605B030BD9A68520107D49A6812014B
:1006B00006D49A68D200F3D50222D5E70022D3E708
:1006C0000122D1E773757200000600200058014036
:1006D000011000005C060020F0B589B072B602235C
:1006E000802201255D4C920423705D4B63605D4B5D
:1006F000D9690A43DA61DB69636D1D60636D5A680D
:100700002A423ED0626851681268D9611A60564A1E
:100710005A610423237062B620240F2502A8FFF734
:1007200003FF0028FAD102AB1B792342F6D02B42FB
:10073000F4D1EF22049B1205DB00DB089342EDD1DC
:100740004A4B01930123019A1370FFF771FF02A82E
:10075000FFF7EAFE0028FAD1202202AB1B791342F0
:10076000F5D0049BDB00D808DB0DEF2BEFD184B272
:10077000E03B001418400328E9D8FFF72FFDE607F7
:10078000346329000820FFF72DFEB7E7384B9C4261
:10079000DDD1384B02261C68F8231B06E418A40A96
:1007A0002300FF2719330093334DFFF76BFDFFF74D
:1007B00061FD2B6933432B6123003B409B026B613E
:1007C00040232A6913432B61C046FFF753FD2B6971
:1007D0000134B3432B6180232A6913432B61009BAF
:1007E0009C42E1D1B1E701263442B0D102AB1B7982
:1007F0001B071B0F3342AAD1D022D2019442A6D2AA
:1008000000931C4B02AF1B68E418FFF73BFDFFF79A
:1008100031FD009B184D0237012B04D880232A6933
:1008200013432B6191E72B69FA8933432B612280B3
:10083000FFF720FD2B690234B3432B61009B023B81
:100840000093E6E7FFF7F4FEFA208000FFF764FE6E
:100850000023019A137009B0F0BDC04600060020C5
:1008600014120008001002405B87010058060020A7
:100870005A5A00001C1600080020024070477047BA
:10088000FEE7000070B5124C626820681100A36892
:100890008B4219D8D11E00208B4203D303339B1AFD
:1008A0009B0898001018E368C11E0022994203D8E3
:1008B00003331A1A92089200002100F0FFFB054B47
:1008C00010349C42E0D170BD20C820C1E0E7C04692
:1008D00038160008B816000870B5484C0121626D42
:1008E000764693681D00936080220D4052020B42B1
:1008F00003D00B310B4200D01500D90507D5C0211C
:1009000009010B4200D174E0802189020D4313429A
:1009100007D0C0221203134200D16CE08023DB0217
:100920001D4372B620000830FFF73CFD200029006F
:100930002430FFF767FC62B6636DDD68AA070ED04E
:1009400002215A698A435A6172B620001030FFF7BB
:1009500029FD200001211830FFF754FC62B6102158
:100960000D4207D0636DD96072B620003030FFF7BA
:1009700049FC62B6636D1D69AA070DD010215A6942
:100980008A435A6172B66018FFF70CFD20000221FD
:100990001830FFF737FC62B610210D4207D0636DA7
:1009A000196172B620003030FFF72CFC62B6636D1F
:1009B0005D685D602A070CD50422022122701A6846
:1009C0008A431A6072B6200000214830FFF71AFCF3
:1009D00062B66D0708D5636D996972B62000090487
:1009E0003030FFF70FFC62B60F3601D0FFF728FC5E
:1009F00070BD02218AE7042392E7C046000600206A
:100A0000F8B58025ED052A69EB6877461340DAB220
:100A1000D2432A619B0736D572B61D4CA369696A19
:100A2000606A9A680E1A96421AD39968626A761AB0
:100A3000521818218C46A4446146002062621A684C
:100A40005160D968A261D860624500D1E86062B6A1
:100A50001869884772B6A3699A689642E5D2DEE7BC
:100A60002200A569183295420CD0AA686162521A18
:100A70001218AA609B68042B00D2042380225B1802
:100A8000D205536362B60F3701D0FFF7D9FBF8BD2B
:100A90005C06002010B501240C4B186859690268E7
:100AA00053601A60421CD4770A190024D4778A68EC
:100AB00058611B689C689442FBD85A680B604A6076
:100AC00011605960FFF768FB10BDC0465C0600204E
:100AD00010B572B60E4B5C6960622300A06A2833C1
:100AE00098420FD1E31CDB7F002B07D1A31CDB7FD7
:100AF0009B0703D12269E368D3601A610F20FFF7D7
:100B00005FFC10BD0368A362FFF71AFCE5E7C0466F
:100B10005C060020EFF30983203383F3098862B673
:100B2000704700009C22404BD203996A30B51143B4
:100B30009962996A3D483E4C01409962996A5969A7
:100B400001200A435A6190215A690022C905404296
:100B50004A608860CC608424A825A4054A610C62A0
:100B6000344CED014C62344C0C603449344C4A60D6
:100B70008860CC604A610A624A620D603149324D38
:100B80004A608860CC604D610A624A620A602F49FF
:100B90004A608860CC604D610A624A620A601968E6
:100BA00001320A431A60022219681142FCD0032163
:100BB0005A688A435A600C22596808001040114252
:100BC000FAD1F9211A680A401A6001225860596B5B
:100BD0000A435A630222596B1142FCD0842100223D
:100BE0004903DA6259601A638022196852040A4381
:100BF0001A608022920419681142FCD01121144A13
:100C00001160103910680842FCD0022259680A436A
:100C10000C215A605A680A40082AFBD19969073AA0
:100C20000A439A619B6930BD00100240FFFFB1FF8B
:100C300055555525114004003FA0A8AA00040048BE
:100C40005555555500080048FFFF000000140048A6
:100C500000200240F7B5EF4FEF4BBA6A13439C22D6
:100C6000BB62BB6AD2031340BB62BB6A3B69012310
:100C700000225B423B613B693A613B69F968E74BA3
:100C80000B438021FB60FB68C9030B40FB60FB68E2
:100C90008023F9695B050B43FB61FB698023E04915
:100CA0005B00086803430B60C023396A9B0019424C
:100CB00003D080235B023B623A62C122D94B92008F
:100CC0009858D949C0240840C021090201439950CD
:100CD000C02149008C4660466139FF3919501960BE
:100CE0009858D24924040840204398506446402034
:100CF0001851C0241860985824060002000A2043A6
:100D00009850604680221A50C9481A60040008347E
:100D10008460C4600400103404614461C724002569
:100D20000126C44AA40085610670456245600563DA
:100D3000C561C56305628562C562456385630564F7
:100D400045648564C5640565426518590840C0213D
:100D500009040143195180216046C90519508020BA
:100D60001960FC6980042043F861F86980208000E4
:100D70001458240C2404344314501458AE48240C42
:100D8000240404438020800014509024A4001551B2
:100D900004341551403C155110341551083C16517E
:100DA000103416511458B4431450FA69A348C3249C
:100DB0000240FA61FA69FA69A1483243FA61FA69B4
:100DC0008268A4003243826001209E4A40428A62C7
:100DD000C8628D614D63CD604D604E610E608021B3
:100DE0001A5909061202120A114380221951644647
:100DF00012021A511A60944B944A8C491A60944A10
:100E00005A60944B944A1C001A60944A5D609D603D
:100E10000C34DC601C615D61136A914C0B40136201
:100E2000230080221833A361E361206224606460A0
:100E3000A5606562656622638A4B8B482364230044
:100E400050332365230054336365A365874B2266C3
:100E50006364230048331E8023004A331E70844B92
:100E600022001900AC310B601900A43108608149DF
:100E70008148D967191DCD6719008C3108601900A8
:100E800098310E601900C8310E601900C4310D6030
:100E9000190001900220B03108801900B2310E70A3
:100EA00019007648A831086019009C310C601900BF
:100EB0002832A031E2606261E565A4630A601A002D
:100EC000B83212601A006E48BC32C03360631260E0
:100ED0001A602061FFF734FA62B672B6A722A52124
:100EE000684B92009B50684A89005A50674A2839DB
:100EF0005A509C22019992009D500C329950A22187
:100F0000FC3AFF3A89005A5030315A50AD22022043
:100F1000A62192009D50143A98525D4A89009E5431
:100F20005C4A5D485A50A32292009C5022690839BD
:100F30005A50D060594A18315A50594A04315A50BF
:100F400004315A50A922616992008E6820619D5037
:100F5000802E37D9FFF7F4F962B6402614252020F9
:100F6000504CFFF7B9F94020FFF7B6F963697340B9
:100F700063612022C8206369400053406361636954
:100F8000013D73406361FFF7C7FA002DF1D12026C0
:100F9000454B1B78002B09D1444D454BEB58019331
:100FA000FFF780F9019B00BA83421FD04022FA204C
:100FB0006369C00073406361636953406361FFF715
:100FC000ABFAE5E74A1CD577220012689568AE4275
:100FD000FBD355680A604D6029605160A822012545
:100FE00092009D546061FFF7D7F8B5E772B6134AD7
:100FF000FB69290013408022FB6152002D48FB69E8
:101000006C6800F0AFF803232B4A11680B431360A0
:10101000A047FEE700100240FFFFB1FFFFFFBFFF48
:101020000070004000E100E0FF00FFFFFFFF00FF55
:101030000006002000640040010E0000FFFFFFFDDD
:1010400000580140BF12000098070020800A0020CD
:1010500000190020A00700201902000800ED00E0A0
:101060005C06002020160008340700200004002041
:10107000C806002017020008B9010008081200087D
:1010800058070020C00700201C0A0020D9060008CD
:10109000A20200000D120008400A0020680A002089
:1010A0006C0A0020000400485806002000180008C0
:1010B000FC6300000000002000000140F0B50500C6
:1010C000830749D0541E002A45D003000326CAB224
:1010D00002E00135013C3ED301332A703342F8D19E
:1010E000032C30D9FF250D402A022A43150415434D
:1010F0000F2C34D92700103F3F093E01B4461E0093
:101100001A0010366644156055609560D56010323F
:10111000B242F8D101373F01DB190F270C222740DB
:1011200022403C00002A0ED03E1FB608B400A44660
:101130001A001C1D644420C2A242FCD103240136C3
:10114000B6009B193C40002C05D0C9B21C1919707F
:1011500001339C42FBD1F0BD03001400C0E727001F
:10116000E2E7C046F0B5C64600B50F2A41D90324D0
:10117000030026000B431E401C423FD11500103DCA
:101180002D09A8462D01AC4603000C0084442768B5
:101190001D001F6067685F60A7689F60E768103484
:1011A000DF6010336545F2D145460F230C2401352D
:1011B0002D01491913404519144222D08C59AC51C4
:1011C00004369C1B032CF9D8043B9B0801339B007D
:1011D000ED18C91803231A40561E002A06D0002312
:1011E000CC5C1A00EC5401339642F9D180BCB8466D
:1011F000F0BD0500561E002AF1D1F7E70500561E86
:08120000EDE71A00F6E7C04615
:1012080069646C65006E6F6E616D65006400000056
:1012180005001C0000000000963007772C610EEED8
:10122800BA51099919C46D078FF46A7035A563E935
:10123800A395649E3288DB0EA4B8DC791EE9D5E05C
:1012480088D9D2972B4CB609BD7CB17E072DB8E75B
:10125800911DBF906410B71DF220B06A4871B9F3B0
:10126800DE41BE847DD4DA1AEBE4DD6D51B5D4F4E9
:10127800C785D38356986C13C0A86B647AF962FD4E
:10128800ECC9658A4F5C0114D96C0663633D0FFA9B
:10129800F50D088DC8206E3B5E10694CE44160D5A1
:1012A800727167A2D1E4033C47D4044BFD850DD28B
:1012B8006BB50AA5FAA8B5356C98B242D6C9BBDB9E
:1012C80040F9BCACE36CD832755CDF45CF0DD6DC99
:1012D800593DD1ABAC30D9263A00DE518051D7C840
:1012E8001661D0BFB5F4B42123C4B3569995BACFCB
:1012F8000FA5BDB89EB802280888055FB2D90CC6EC
:1013080024E90BB1877C6F2F114C6858AB1D61C164
:101318003D2D66B69041DC760671DB01BC20D29883
:101328002A10D5EF8985B1711FB5B606A5E4BF9F10
:1013380033D4B8E8A2C9077834F9000F8EA8099603
:1013480018980EE1BB0D6A7F2D3D6D08976C64916E
:10135800015C63E6F4516B6B62616C1CD830658587
:101368004E0062F2ED95066C7BA5011BC1F4088264
:1013780057C40FF5C6D9B06550E9B712EAB8BE8BA5
:101388007C88B9FCDF1DDD62492DDA15F37CD38C2E
:10139800654CD4FB5861B24DCE51B53A7400BCA32C
:1013A800E230BBD441A5DF4AD795D83D6DC4D1A45E
:1013B800FBF4D6D36AE96943FCD96E34468867AD35
:1013C800D0B860DA732D0444E51D03335F4C0AAAD4
:1013D800C97C0DDD3C710550AA41022710100BBED7
:1013E80086200CC925B56857B3856F2009D466B91E
:1013F8009FE461CE0EF9DE5E98C9D9292298D0B053
:10140800B4A8D7C7173DB359810DB42E3B5CBDB7FF
:10141800AD6CBAC02083B8EDB6B3BF9A0CE2B60380
:101428009AD2B1743947D5EAAF77D29D1526DB0435
:101438008316DC73120B63E3843B64943E6A6D0D80
:10144800A85A6A7A0BCF0EE49DFF099327AE000ACB
:10145800B19E077D44930FF0D2A3088768F2011E5E
:10146800FEC206695D5762F7CB67658071366C19F5
:10147800E7066B6E761BD4FEE02BD3895A7ADA1016
:10148800CC4ADD676FDFB9F9F9EFBE8E43BEB717F7
:10149800D58EB060E8A3D6D67E93D1A1C4C2D83881
:1014A80052F2DF4FF167BBD16757BCA6DD06B53FE7
:1014B8004B36B248DA2B0DD84C1B0AAFF64A033626
:1014C800607A0441C3EF60DF55DF67A8EF8E6E31A5
:1014D80079BE69468CB361CB1A8366BCA0D26F25EE
:1014E80036E2685295770CCC03470BBBB91602223B
:1014F8002F260555BE3BBAC5280BBDB2925AB42B50
:10150800046AB35CA7FFD7C231CFD0B58B9ED92C64
:101518001DAEDE5BB0C2649B26F263EC9CA36A75C9
:101528000A936D02A906099C3F360EEB8567077280
:1015380013570005824ABF95147AB8E2AE2BB17BE7
:10154800381BB60C9B8ED2920DBED5E5B7EFDC7C6E
:1015580021DFDB0BD4D2D38642E2D4F1F8B3DD68C5
:101568006E83DA1FCD16BE815B26B9F6E177B06FC0
:101578007747B718E65A0888706A0FFFCA3B0666AD
:101588005C0B0111FF9E658F69AE62F8D3FF6B613A
:1015980045CF6C1678E20AA0EED20DD75483044EDC
:1015A800C2B30339612667A7F71660D04D4769496A
:1015B800DB776E3E4A6AD1AEDC5AD6D9660BDF407D
:1015C800F03BD83753AEBCA9C59EBBDE7FCFB24730
:1015D800E9FFB5301CF2BDBD8AC2BACA3093B35315
:1015E800A6A3B4240536D0BA9306D7CD2957DE541E
:1015F800BF67D9232E7A66B3B84A61C4021B685DF7
:10160800942B6F2A37BE0BB4A18E0CC31BDF055A6F
:101618008DEF022D001800086D61696E001680308C
:1016280004043C08140C10181C202122000000009F
:10163800B8160008800A0020800A0020800A0020CE
:10164800B8160008000000000000000000000000BC
:10165800B8160008000000000000000000000000AC
:10166800B81600080000000000000000000000009C
:10167800B81600080000000000000000000000008C
:10168800B81600080000000000000000000000007C
:10169800B81600080000000000000000000000006C
:1016A800B81600080000000000000000000000005C
:04000005080001915D
:00000001FF
